{"abi":[{"inputs":[{"internalType":"address","name":"_underlyingPriceFeed","type":"address"},{"internalType":"string","name":"_description","type":"string"},{"internalType":"uint256","name":"_timeStampExpiry","type":"uint256"},{"internalType":"uint256","name":"_annualizedFee10000","type":"uint256"}],"stateMutability":"nonpayable","type":"constructor","name":"constructor"},{"anonymous":false,"inputs":[{"indexed":false,"internalType":"string","name":"status","type":"string"},{"indexed":false,"internalType":"uint256","name":"balance","type":"uint256"}],"name":"ConratctStatus","type":"event"},{"anonymous":false,"inputs":[{"indexed":false,"internalType":"address","name":"_address","type":"address"},{"indexed":false,"internalType":"uint256","name":"balance","type":"uint256"},{"indexed":false,"internalType":"string","name":"book","type":"string"}],"name":"NewFunding","type":"event"},{"inputs":[{"internalType":"address","name":"","type":"address"},{"internalType":"uint256","name":"","type":"uint256"}],"name":"bookHedgeProviders","outputs":[{"internalType":"uint256","name":"","type":"uint256"}],"stateMutability":"view","type":"function"},{"inputs":[{"internalType":"address","name":"","type":"address"},{"internalType":"uint256","name":"","type":"uint256"}],"name":"bookLongSide","outputs":[{"internalType":"uint256","name":"","type":"uint256"}],"stateMutability":"view","type":"function"},{"inputs":[{"internalType":"address","name":"","type":"address"},{"internalType":"uint256","name":"","type":"uint256"}],"name":"bookShortSide","outputs":[{"internalType":"uint256","name":"","type":"uint256"}],"stateMutability":"view","type":"function"},{"inputs":[],"name":"callSettlement","outputs":[],"stateMutability":"nonpayable","type":"function"},{"inputs":[],"name":"contractOwner","outputs":[{"internalType":"address","name":"","type":"address"}],"stateMutability":"view","type":"function"},{"inputs":[],"name":"enterLongSide","outputs":[],"stateMutability":"payable","type":"function"},{"inputs":[],"name":"enterShortSide","outputs":[],"stateMutability":"payable","type":"function"},{"inputs":[],"name":"getContractDescription","outputs":[{"internalType":"string","name":"","type":"string"}],"stateMutability":"view","type":"function"},{"inputs":[],"name":"getResidual","outputs":[{"internalType":"uint8","name":"","type":"uint8"},{"internalType":"uint256","name":"","type":"uint256"}],"stateMutability":"view","type":"function"},{"inputs":[{"internalType":"uint256","name":"","type":"uint256"}],"name":"investorsLongSide","outputs":[{"internalType":"address payable","name":"","type":"address"}],"stateMutability":"view","type":"function"},{"inputs":[{"internalType":"uint256","name":"","type":"uint256"}],"name":"investorsShortSide","outputs":[{"internalType":"address payable","name":"","type":"address"}],"stateMutability":"view","type":"function"},{"inputs":[{"internalType":"uint256","name":"timeDifference","type":"uint256"},{"internalType":"uint256","name":"asset_return_annualized10000","type":"uint256"}],"name":"payoffFunction","outputs":[{"internalType":"uint256","name":"","type":"uint256"}],"stateMutability":"view","type":"function"},{"inputs":[],"name":"provideHedgeCapital","outputs":[],"stateMutability":"payable","type":"function"},{"inputs":[],"name":"terminateContract","outputs":[],"stateMutability":"nonpayable","type":"function"},{"inputs":[],"name":"totalBalanceHedgingCapital","outputs":[{"internalType":"uint256","name":"","type":"uint256"}],"stateMutability":"view","type":"function"},{"inputs":[],"name":"totalBalanceHedgingCapitalExposed","outputs":[{"internalType":"uint256","name":"","type":"uint256"}],"stateMutability":"view","type":"function"},{"inputs":[],"name":"totalBalanceLongSide","outputs":[{"internalType":"uint256","name":"","type":"uint256"}],"stateMutability":"view","type":"function"},{"inputs":[],"name":"totalBalanceShortSide","outputs":[{"internalType":"uint256","name":"","type":"uint256"}],"stateMutability":"view","type":"function"},{"inputs":[],"name":"underlyingPriceFeed","outputs":[{"internalType":"contract AggregatorV3Interface","name":"","type":"address"}],"stateMutability":"view","type":"function"},{"inputs":[],"name":"withdrawFunds","outputs":[],"stateMutability":"payable","type":"function"}],"bytecode":"60806040526802b5e3af16b1880000600f556005601055612710601155620f42406012553480156200003057600080fd5b506040516200189838038062001898833981810160405260808110156200005657600080fd5b8151602083018051604051929492938301929190846401000000008211156200007e57600080fd5b9083019060208201858111156200009457600080fd5b8251640100000000811182820188101715620000af57600080fd5b82525081516020918201929091019080838360005b83811015620000de578181015183820152602001620000c4565b50505050905090810190601f1680156200010c5780820380516001836020036101000a031916815260200191505b5060409081526020828101519290910151601380546001600160a01b0319166001600160a01b038916179055855192945092506200015091600d9186019062000175565b50601480546001600160a01b0319163317905560159190915560165550620002119050565b828054600181600116156101000203166002900490600052602060002090601f016020900481019282601f10620001b857805160ff1916838001178555620001e8565b82800160010185558215620001e8579182015b82811115620001e8578251825591602001919060010190620001cb565b50620001f6929150620001fa565b5090565b5b80821115620001f65760008155600101620001fb565b61167780620002216000396000f3fe60806040526004361061011f5760003560e01c80636c80d759116100a0578063ce606ee011610064578063ce606ee01461031f578063d0cb2ee714610334578063d12bcb121461036d578063d6af3138146103f7578063fca8175c146103ff5761011f565b80636c80d759146102625780636e7db76a1461027757806379d17cf4146102a75780639ae9a7c8146102d1578063c4b61228146102e65761011f565b806330acb728116100e757806330acb728146101c55780635a8b216a146101f7578063614df878146101ff578063620c01061461021457806363a074701461024d5761011f565b806316df8029146101245780632183895a1461016a57806324600fc3146101915780632ac0a1a51461019b5780632fd949ca146101b0575b600080fd5b34801561013057600080fd5b5061014e6004803603602081101561014757600080fd5b5035610407565b604080516001600160a01b039092168252519081900360200190f35b34801561017657600080fd5b5061017f61042e565b60408051918252519081900360200190f35b610199610434565b005b3480156101a757600080fd5b5061014e6104b6565b3480156101bc57600080fd5b506101996104c5565b3480156101d157600080fd5b506101da610621565b6040805160ff909316835260208301919091528051918290030190f35b61019961069d565b34801561020b57600080fd5b5061017f610757565b34801561022057600080fd5b5061017f6004803603604081101561023757600080fd5b506001600160a01b03813516906020013561075d565b34801561025957600080fd5b5061019961077f565b34801561026e57600080fd5b5061017f6108ae565b34801561028357600080fd5b5061017f6004803603604081101561029a57600080fd5b50803590602001356108b4565b3480156102b357600080fd5b5061014e600480360360208110156102ca57600080fd5b50356108c9565b3480156102dd57600080fd5b5061017f6108d6565b3480156102f257600080fd5b5061017f6004803603604081101561030957600080fd5b506001600160a01b0381351690602001356108dc565b34801561032b57600080fd5b5061014e6108f5565b34801561034057600080fd5b5061017f6004803603604081101561035757600080fd5b506001600160a01b038135169060200135610904565b34801561037957600080fd5b5061038261091d565b6040805160208082528351818301528351919283929083019185019080838360005b838110156103bc5781810151838201526020016103a4565b50505050905090810190601f1680156103e95780820380516001836020036101000a031916815260200191505b509250505060405180910390f35b6101996109b3565b610199610a6e565b6004818154811061041457fe5b6000918252602090912001546001600160a01b0316905081565b600b5481565b61043c61077f565b3360008181526001602090815260408083205491839052808320549051910192916108fc841502918491818181858888f19350505050158015610483573d6000803e3d6000fd5b503360009081526020818152604080832083815560019283905290832083815590820183905501556104b3610b28565b50565b6013546001600160a01b031681565b6014546001600160a01b031633146104dc57600080fd5b6104e461077f565b60005b60035481101561058257600381815481106104fe57fe5b6000918252602082200154600380546001600160a01b03909216926108fc92909182918690811061052b57fe5b60009182526020808320909101546001600160a01b03168352820192909252604001812001546040518115909202916000818181858888f19350505050158015610579573d6000803e3d6000fd5b506001016104e7565b5060005b6004548110156104b3576004818154811061059d57fe5b6000918252602082200154600480546001600160a01b03909216926108fc9260019290869081106105ca57fe5b60009182526020808320909101546001600160a01b03168352820192909252604001812001546040518115909202916000818181858888f19350505050158015610618573d6000803e3d6000fd5b50600101610586565b600954600a546000918291038161063782610db4565b9050600954601154601054601154018161064d57fe5b0402600a541115610665576001935091506106999050565b600a5460115460105481018161067757fe5b0402600954111561068f576002935091506106999050565b6000809350935050505b9091565b60038054600181019091557fc2575a0e9e593c00f959f8c92f12db2869c3395a3b0502d05e2516446f71f85b0180546001600160a01b031916339081179091556000818152602081815260409182902080543490810190915560098054820190558251938452908301526060828201819052600490830152636c6f6e6760e01b6080830152517f41e3c92bee255a7eef9768c9eb9d329db26fa63cc6c02f9e463bff1efa8b12429181900360a00190a1610755610b28565b565b600a5481565b6000602052816000526040600020816002811061077657fe5b01549150829050565b6000806000601360009054906101000a90046001600160a01b03166001600160a01b031663feaf968c6040518163ffffffff1660e01b815260040160a06040518083038186803b1580156107d257600080fd5b505afa1580156107e6573d6000803e3d6000fd5b505050506040513d60a08110156107fc57600080fd5b50805160208201516040909201516015549195509193509091504211806108235750601554155b61085e5760405162461bcd60e51b81526004018080602001828103825260568152602001806115ec6056913960600191505060405180910390fd5b600061086983610db4565b905061087b6007546008548385610dcf565b6006805469ffffffffffffffffffff191669ffffffffffffffffffff959095169490941790935560079290925550600855565b600c5481565b600082838302816108c157fe5b049392505050565b6003818154811061041457fe5b60095481565b6001602052816000526040600020816002811061077657fe5b6014546001600160a01b031681565b6002602052816000526040600020816004811061077657fe5b600d8054604080516020601f60026000196101006001881615020190951694909404938401819004810282018101909252828152606093909290918301828280156109a95780601f1061097e576101008083540402835291602001916109a9565b820191906000526020600020905b81548152906001019060200180831161098c57829003601f168201915b5050505050905090565b600580546001810182557f036b6384b5eca791c62761152d0c79bb0604c104a5fb6f4eb0703f3154bb3db00180546001600160a01b03191633908117909155600081815260026020908152604091829020805434908101909155600b805482019055825193845290830152606082820181905282019290925264686564676560d81b608082015290517f41e3c92bee255a7eef9768c9eb9d329db26fa63cc6c02f9e463bff1efa8b12429181900360a00190a1610755610b28565b6004805460018082019092557f8a35acfbc15ff81a39ae7d344fd709f28e8600b4aa8c65c6b64bfe7fe36bd19b0180546001600160a01b0319163390811790915560008181526020928352604090819020805434908101909155600a8054820190558151928352928201929092526060818301819052600590820152641cda1bdc9d60da1b608082015290517f41e3c92bee255a7eef9768c9eb9d329db26fa63cc6c02f9e463bff1efa8b12429181900360a00190a16107555b60006009819055600a819055600b8190558080805b600354811015610b8f5760008060038381548110610b5757fe5b60009182526020808320909101546001600160a01b031683528201929092526040018120015460098054820190559250600101610b3d565b5060005b600354811015610c2c5760008060038381548110610bad57fe5b60009182526020808320909101546001600160a01b031683528201929092526040018120015492506011546009548481610be357fe5b040291508160008060038481548110610bf857fe5b60009182526020808320909101546001600160a01b0316835282019290925260400190206001015592810192600101610b93565b506000925060005b600454811015610c87576001600060048381548110610c4f57fe5b60009182526020808320909101546001600160a01b0316835282019290925260400181200154600a8054820190559250600101610c34565b5060005b600454811015610ced57601154600a548481610ca357fe5b04029150816001600060048481548110610cb957fe5b60009182526020808320909101546001600160a01b0316835282019290925260400190206001015592810192600101610c8b565b506000925060005b600554811015610d44576002600060058381548110610d1057fe5b60009182526020808320909101546001600160a01b0316835282019290925260400181200154938201939250600101610cf5565b5060005b600554811015610dae57601154600b548481610d6057fe5b04029150816002600060048481548110610d7657fe5b60009182526020808320909101546001600160a01b03168352820192909252604001902060010155600b805484019055600101610d48565b50505050565b600080821215610dc75781600003610dc9565b815b92915050565b6000600954118015610de357506000600a54115b610e1e5760405162461bcd60e51b815260040180806020018281038252603e8152602001806115ae603e913960400191505060405180910390fd5b610e288184610fa9565b82810360008580850381610e3857fe5b049050600060115483836301e133800281610e4f57fe5b040290506000610e5f84836108b4565b90506000601154826009540281610e7257fe5b04905060005b600354811015610f005760008060038381548110610e9257fe5b60009182526020808320909101546001600160a01b03168352820192909252604001902060010154820260008060038481548110610ecc57fe5b60009182526020808320909101546001600160a01b0316835282019290925260400181200180549091019055600101610e78565b5060005b600454811015610f8d5760008060048381548110610f1e57fe5b60009182526020808320909101546001600160a01b03168352820192909252604001902060010154820260008060048481548110610f5857fe5b60009182526020808320909101546001600160a01b031683528201929092526040018120018054919091039055600101610f04565b50610f966111a9565b610f9e610b28565b505050505050505050565b600080806018603c808688030481610fbd57fe5b0481610fc557fe5b04905060005b60035481101561106c5761016d820460115460165481610fe757fe5b040a60008060038481548110610ff957fe5b60009182526020808320909101546001600160a01b0316835282019290925260400181200154029350836000806003848154811061103357fe5b60009182526020808320909101546001600160a01b03168352820192909252604001812001805491909103905591830191600101610fcb565b5060005b6004548110156111135761016d82046011546016548161108c57fe5b040a600160006004848154811061109f57fe5b60009182526020808320909101546001600160a01b03168352820192909252604001812001540293508360016000600484815481106110da57fe5b60009182526020808320909101546001600160a01b03168352820192909252604001812001805491909103905591830191600101611070565b5060005b6005548110156111a15782600260006005848154811061113357fe5b60009182526020808320909101546001600160a01b0316835282019290925260400190206003015402600260006005848154811061116d57fe5b60009182526020808320909101546001600160a01b0316835282019290925260400181200180549091019055600101611117565b505050505050565b60006111b361153f565b6000806111be610621565b915091508160ff166000141561121b576040805162461bcd60e51b815260206004820152601960248201527f436f6e747261637420697320696e206571756c69627269756d00000000000000604482015290519081900360640190fd5b8160ff16600114156113ac5760408051602081018390528181526019818301527f4c6f6e67207369646520697320756e6465726578706f73656400000000000000606082015290517f80b2dca88ba9fd47add0ca019811c8fdf103742981c98a067b3b56973be0a0aa9181900360800190a160005b6005548110156113a657601154600080600584815481106112ad57fe5b60009182526020808320909101546001600160a01b031683528201929092526040019020600101548302816112de57fe5b04935083600080600584815481106112f257fe5b60009182526020808320909101546001600160a01b031683528201929092526040018120016000828254019250508190555083600260006005848154811061133657fe5b60009182526020808320909101546001600160a01b031683528201929092526040019020600201819055508260ff16600260006005848154811061137657fe5b60009182526020808320909101546001600160a01b03168352820192909252604001902060030155600101611290565b5061153a565b8160ff166002141561153a576040805160208101839052818152601a818301527f53686f7274207369646520697320756e6465726578706f736564000000000000606082015290517f80b2dca88ba9fd47add0ca019811c8fdf103742981c98a067b3b56973be0a0aa9181900360800190a160005b600554811015610dae57601154600160006005848154811061143f57fe5b60009182526020808320909101546001600160a01b0316835282019290925260400190206001015483028161147057fe5b0484019350836000806005848154811061148657fe5b60009182526020808320909101546001600160a01b03168352820192909252604001812001600082825401925050819055508360026000600584815481106114ca57fe5b60009182526020808320909101546001600160a01b031683528201929092526040019020600201819055508260ff16600260006005848154811061150a57fe5b60009182526020808320909101546001600160a01b03168352820192909252604001902060030155600101611421565b505050565b60005b6005548110156115a45760006005828154811061155b57fe5b6000918252602080832091909101546001600160a01b03168252818152604080832083905560018083528184208490556002909252822060030191909155919091019050611542565b50610755610b2856fe4c6f6e67206f72205369646520646f6573206e6f74206861766520616e792066756e64732c2073657474656c656d656e74206e6f7420706f737369626c65536574746c656d656e742063616e6e6f7420626520657863656375746564206265636175736520736574746c656d656e742065787069727920726571756972656d656e74206973206e6f742066756c6c66696c6c6564a26469706673582212206e6b7049ad2b4b5e040e625ae886af1c325d3b07a46f2803d07fed9429e50c2164736f6c634300060c0033","bytecodeSha1":"54c619520be72436f0dbfbffae48bd79d36cd6fa","compiler":{"evm_version":"istanbul","optimizer":{"enabled":true,"runs":200},"version":"0.6.12+commit.27d51765"},"contractName":"PooledDerivative","language":"Solidity","natspec":{"kind":"dev","methods":{},"version":1},"opcodes":"PUSH1 0x80 PUSH1 0x40 MSTORE PUSH1 0x4 CALLDATASIZE LT PUSH2 0x11F JUMPI PUSH1 0x0 CALLDATALOAD PUSH1 0xE0 SHR DUP1 PUSH4 0x6C80D759 GT PUSH2 0xA0 JUMPI DUP1 PUSH4 0xCE606EE0 GT PUSH2 0x64 JUMPI DUP1 PUSH4 0xCE606EE0 EQ PUSH2 0x31F JUMPI DUP1 PUSH4 0xD0CB2EE7 EQ PUSH2 0x334 JUMPI DUP1 PUSH4 0xD12BCB12 EQ PUSH2 0x36D JUMPI DUP1 PUSH4 0xD6AF3138 EQ PUSH2 0x3F7 JUMPI DUP1 PUSH4 0xFCA8175C EQ PUSH2 0x3FF JUMPI PUSH2 0x11F JUMP JUMPDEST DUP1 PUSH4 0x6C80D759 EQ PUSH2 0x262 JUMPI DUP1 PUSH4 0x6E7DB76A EQ PUSH2 0x277 JUMPI DUP1 PUSH4 0x79D17CF4 EQ PUSH2 0x2A7 JUMPI DUP1 PUSH4 0x9AE9A7C8 EQ PUSH2 0x2D1 JUMPI DUP1 PUSH4 0xC4B61228 EQ PUSH2 0x2E6 JUMPI PUSH2 0x11F JUMP JUMPDEST DUP1 PUSH4 0x30ACB728 GT PUSH2 0xE7 JUMPI DUP1 PUSH4 0x30ACB728 EQ PUSH2 0x1C5 JUMPI DUP1 PUSH4 0x5A8B216A EQ PUSH2 0x1F7 JUMPI DUP1 PUSH4 0x614DF878 EQ PUSH2 0x1FF JUMPI DUP1 PUSH4 0x620C0106 EQ PUSH2 0x214 JUMPI DUP1 PUSH4 0x63A07470 EQ PUSH2 0x24D JUMPI PUSH2 0x11F JUMP JUMPDEST DUP1 PUSH4 0x16DF8029 EQ PUSH2 0x124 JUMPI DUP1 PUSH4 0x2183895A EQ PUSH2 0x16A JUMPI DUP1 PUSH4 0x24600FC3 EQ PUSH2 0x191 JUMPI DUP1 PUSH4 0x2AC0A1A5 EQ PUSH2 0x19B JUMPI DUP1 PUSH4 0x2FD949CA EQ PUSH2 0x1B0 JUMPI JUMPDEST PUSH1 0x0 DUP1 REVERT JUMPDEST CALLVALUE DUP1 ISZERO PUSH2 0x130 JUMPI PUSH1 0x0 DUP1 REVERT JUMPDEST POP PUSH2 0x14E PUSH1 0x4 DUP1 CALLDATASIZE SUB PUSH1 0x20 DUP2 LT ISZERO PUSH2 0x147 JUMPI PUSH1 0x0 DUP1 REVERT JUMPDEST POP CALLDATALOAD PUSH2 0x407 JUMP JUMPDEST PUSH1 0x40 DUP1 MLOAD PUSH1 0x1 PUSH1 0x1 PUSH1 0xA0 SHL SUB SWAP1 SWAP3 AND DUP3 MSTORE MLOAD SWAP1 DUP2 SWAP1 SUB PUSH1 0x20 ADD SWAP1 RETURN JUMPDEST CALLVALUE DUP1 ISZERO PUSH2 0x176 JUMPI PUSH1 0x0 DUP1 REVERT JUMPDEST POP PUSH2 0x17F PUSH2 0x42E JUMP JUMPDEST PUSH1 0x40 DUP1 MLOAD SWAP2 DUP3 MSTORE MLOAD SWAP1 DUP2 SWAP1 SUB PUSH1 0x20 ADD SWAP1 RETURN JUMPDEST PUSH2 0x199 PUSH2 0x434 JUMP JUMPDEST STOP JUMPDEST CALLVALUE DUP1 ISZERO PUSH2 0x1A7 JUMPI PUSH1 0x0 DUP1 REVERT JUMPDEST POP PUSH2 0x14E PUSH2 0x4B6 JUMP JUMPDEST CALLVALUE DUP1 ISZERO PUSH2 0x1BC JUMPI PUSH1 0x0 DUP1 REVERT JUMPDEST POP PUSH2 0x199 PUSH2 0x4C5 JUMP JUMPDEST CALLVALUE DUP1 ISZERO PUSH2 0x1D1 JUMPI PUSH1 0x0 DUP1 REVERT JUMPDEST POP PUSH2 0x1DA PUSH2 0x621 JUMP JUMPDEST PUSH1 0x40 DUP1 MLOAD PUSH1 0xFF SWAP1 SWAP4 AND DUP4 MSTORE PUSH1 0x20 DUP4 ADD SWAP2 SWAP1 SWAP2 MSTORE DUP1 MLOAD SWAP2 DUP3 SWAP1 SUB ADD SWAP1 RETURN JUMPDEST PUSH2 0x199 PUSH2 0x69D JUMP JUMPDEST CALLVALUE DUP1 ISZERO PUSH2 0x20B JUMPI PUSH1 0x0 DUP1 REVERT JUMPDEST POP PUSH2 0x17F PUSH2 0x757 JUMP JUMPDEST CALLVALUE DUP1 ISZERO PUSH2 0x220 JUMPI PUSH1 0x0 DUP1 REVERT JUMPDEST POP PUSH2 0x17F PUSH1 0x4 DUP1 CALLDATASIZE SUB PUSH1 0x40 DUP2 LT ISZERO PUSH2 0x237 JUMPI PUSH1 0x0 DUP1 REVERT JUMPDEST POP PUSH1 0x1 PUSH1 0x1 PUSH1 0xA0 SHL SUB DUP2 CALLDATALOAD AND SWAP1 PUSH1 0x20 ADD CALLDATALOAD PUSH2 0x75D JUMP JUMPDEST CALLVALUE DUP1 ISZERO PUSH2 0x259 JUMPI PUSH1 0x0 DUP1 REVERT JUMPDEST POP PUSH2 0x199 PUSH2 0x77F JUMP JUMPDEST CALLVALUE DUP1 ISZERO PUSH2 0x26E JUMPI PUSH1 0x0 DUP1 REVERT JUMPDEST POP PUSH2 0x17F PUSH2 0x8AE JUMP JUMPDEST CALLVALUE DUP1 ISZERO PUSH2 0x283 JUMPI PUSH1 0x0 DUP1 REVERT JUMPDEST POP PUSH2 0x17F PUSH1 0x4 DUP1 CALLDATASIZE SUB PUSH1 0x40 DUP2 LT ISZERO PUSH2 0x29A JUMPI PUSH1 0x0 DUP1 REVERT JUMPDEST POP DUP1 CALLDATALOAD SWAP1 PUSH1 0x20 ADD CALLDATALOAD PUSH2 0x8B4 JUMP JUMPDEST CALLVALUE DUP1 ISZERO PUSH2 0x2B3 JUMPI PUSH1 0x0 DUP1 REVERT JUMPDEST POP PUSH2 0x14E PUSH1 0x4 DUP1 CALLDATASIZE SUB PUSH1 0x20 DUP2 LT ISZERO PUSH2 0x2CA JUMPI PUSH1 0x0 DUP1 REVERT JUMPDEST POP CALLDATALOAD PUSH2 0x8C9 JUMP JUMPDEST CALLVALUE DUP1 ISZERO PUSH2 0x2DD JUMPI PUSH1 0x0 DUP1 REVERT JUMPDEST POP PUSH2 0x17F PUSH2 0x8D6 JUMP JUMPDEST CALLVALUE DUP1 ISZERO PUSH2 0x2F2 JUMPI PUSH1 0x0 DUP1 REVERT JUMPDEST POP PUSH2 0x17F PUSH1 0x4 DUP1 CALLDATASIZE SUB PUSH1 0x40 DUP2 LT ISZERO PUSH2 0x309 JUMPI PUSH1 0x0 DUP1 REVERT JUMPDEST POP PUSH1 0x1 PUSH1 0x1 PUSH1 0xA0 SHL SUB DUP2 CALLDATALOAD AND SWAP1 PUSH1 0x20 ADD CALLDATALOAD PUSH2 0x8DC JUMP JUMPDEST CALLVALUE DUP1 ISZERO PUSH2 0x32B JUMPI PUSH1 0x0 DUP1 REVERT JUMPDEST POP PUSH2 0x14E PUSH2 0x8F5 JUMP JUMPDEST CALLVALUE DUP1 ISZERO PUSH2 0x340 JUMPI PUSH1 0x0 DUP1 REVERT JUMPDEST POP PUSH2 0x17F PUSH1 0x4 DUP1 CALLDATASIZE SUB PUSH1 0x40 DUP2 LT ISZERO PUSH2 0x357 JUMPI PUSH1 0x0 DUP1 REVERT JUMPDEST POP PUSH1 0x1 PUSH1 0x1 PUSH1 0xA0 SHL SUB DUP2 CALLDATALOAD AND SWAP1 PUSH1 0x20 ADD CALLDATALOAD PUSH2 0x904 JUMP JUMPDEST CALLVALUE DUP1 ISZERO PUSH2 0x379 JUMPI PUSH1 0x0 DUP1 REVERT JUMPDEST POP PUSH2 0x382 PUSH2 0x91D JUMP JUMPDEST PUSH1 0x40 DUP1 MLOAD PUSH1 0x20 DUP1 DUP3 MSTORE DUP4 MLOAD DUP2 DUP4 ADD MSTORE DUP4 MLOAD SWAP2 SWAP3 DUP4 SWAP3 SWAP1 DUP4 ADD SWAP2 DUP6 ADD SWAP1 DUP1 DUP4 DUP4 PUSH1 0x0 JUMPDEST DUP4 DUP2 LT ISZERO PUSH2 0x3BC JUMPI DUP2 DUP2 ADD MLOAD DUP4 DUP3 ADD MSTORE PUSH1 0x20 ADD PUSH2 0x3A4 JUMP JUMPDEST POP POP POP POP SWAP1 POP SWAP1 DUP2 ADD SWAP1 PUSH1 0x1F AND DUP1 ISZERO PUSH2 0x3E9 JUMPI DUP1 DUP3 SUB DUP1 MLOAD PUSH1 0x1 DUP4 PUSH1 0x20 SUB PUSH2 0x100 EXP SUB NOT AND DUP2 MSTORE PUSH1 0x20 ADD SWAP2 POP JUMPDEST POP SWAP3 POP POP POP PUSH1 0x40 MLOAD DUP1 SWAP2 SUB SWAP1 RETURN JUMPDEST PUSH2 0x199 PUSH2 0x9B3 JUMP JUMPDEST PUSH2 0x199 PUSH2 0xA6E JUMP JUMPDEST PUSH1 0x4 DUP2 DUP2 SLOAD DUP2 LT PUSH2 0x414 JUMPI INVALID JUMPDEST PUSH1 0x0 SWAP2 DUP3 MSTORE PUSH1 0x20 SWAP1 SWAP2 KECCAK256 ADD SLOAD PUSH1 0x1 PUSH1 0x1 PUSH1 0xA0 SHL SUB AND SWAP1 POP DUP2 JUMP JUMPDEST PUSH1 0xB SLOAD DUP2 JUMP JUMPDEST PUSH2 0x43C PUSH2 0x77F JUMP JUMPDEST CALLER PUSH1 0x0 DUP2 DUP2 MSTORE PUSH1 0x1 PUSH1 0x20 SWAP1 DUP2 MSTORE PUSH1 0x40 DUP1 DUP4 KECCAK256 SLOAD SWAP2 DUP4 SWAP1 MSTORE DUP1 DUP4 KECCAK256 SLOAD SWAP1 MLOAD SWAP2 ADD SWAP3 SWAP2 PUSH2 0x8FC DUP5 ISZERO MUL SWAP2 DUP5 SWAP2 DUP2 DUP2 DUP2 DUP6 DUP9 DUP9 CALL SWAP4 POP POP POP POP ISZERO DUP1 ISZERO PUSH2 0x483 JUMPI RETURNDATASIZE PUSH1 0x0 DUP1 RETURNDATACOPY RETURNDATASIZE PUSH1 0x0 REVERT JUMPDEST POP CALLER PUSH1 0x0 SWAP1 DUP2 MSTORE PUSH1 0x20 DUP2 DUP2 MSTORE PUSH1 0x40 DUP1 DUP4 KECCAK256 DUP4 DUP2 SSTORE PUSH1 0x1 SWAP3 DUP4 SWAP1 MSTORE SWAP1 DUP4 KECCAK256 DUP4 DUP2 SSTORE SWAP1 DUP3 ADD DUP4 SWAP1 SSTORE ADD SSTORE PUSH2 0x4B3 PUSH2 0xB28 JUMP JUMPDEST POP JUMP JUMPDEST PUSH1 0x13 SLOAD PUSH1 0x1 PUSH1 0x1 PUSH1 0xA0 SHL SUB AND DUP2 JUMP JUMPDEST PUSH1 0x14 SLOAD PUSH1 0x1 PUSH1 0x1 PUSH1 0xA0 SHL SUB AND CALLER EQ PUSH2 0x4DC JUMPI PUSH1 0x0 DUP1 REVERT JUMPDEST PUSH2 0x4E4 PUSH2 0x77F JUMP JUMPDEST PUSH1 0x0 JUMPDEST PUSH1 0x3 SLOAD DUP2 LT ISZERO PUSH2 0x582 JUMPI PUSH1 0x3 DUP2 DUP2 SLOAD DUP2 LT PUSH2 0x4FE JUMPI INVALID JUMPDEST PUSH1 0x0 SWAP2 DUP3 MSTORE PUSH1 0x20 DUP3 KECCAK256 ADD SLOAD PUSH1 0x3 DUP1 SLOAD PUSH1 0x1 PUSH1 0x1 PUSH1 0xA0 SHL SUB SWAP1 SWAP3 AND SWAP3 PUSH2 0x8FC SWAP3 SWAP1 SWAP2 DUP3 SWAP2 DUP7 SWAP1 DUP2 LT PUSH2 0x52B JUMPI INVALID JUMPDEST PUSH1 0x0 SWAP2 DUP3 MSTORE PUSH1 0x20 DUP1 DUP4 KECCAK256 SWAP1 SWAP2 ADD SLOAD PUSH1 0x1 PUSH1 0x1 PUSH1 0xA0 SHL SUB AND DUP4 MSTORE DUP3 ADD SWAP3 SWAP1 SWAP3 MSTORE PUSH1 0x40 ADD DUP2 KECCAK256 ADD SLOAD PUSH1 0x40 MLOAD DUP2 ISZERO SWAP1 SWAP3 MUL SWAP2 PUSH1 0x0 DUP2 DUP2 DUP2 DUP6 DUP9 DUP9 CALL SWAP4 POP POP POP POP ISZERO DUP1 ISZERO PUSH2 0x579 JUMPI RETURNDATASIZE PUSH1 0x0 DUP1 RETURNDATACOPY RETURNDATASIZE PUSH1 0x0 REVERT JUMPDEST POP PUSH1 0x1 ADD PUSH2 0x4E7 JUMP JUMPDEST POP PUSH1 0x0 JUMPDEST PUSH1 0x4 SLOAD DUP2 LT ISZERO PUSH2 0x4B3 JUMPI PUSH1 0x4 DUP2 DUP2 SLOAD DUP2 LT PUSH2 0x59D JUMPI INVALID JUMPDEST PUSH1 0x0 SWAP2 DUP3 MSTORE PUSH1 0x20 DUP3 KECCAK256 ADD SLOAD PUSH1 0x4 DUP1 SLOAD PUSH1 0x1 PUSH1 0x1 PUSH1 0xA0 SHL SUB SWAP1 SWAP3 AND SWAP3 PUSH2 0x8FC SWAP3 PUSH1 0x1 SWAP3 SWAP1 DUP7 SWAP1 DUP2 LT PUSH2 0x5CA JUMPI INVALID JUMPDEST PUSH1 0x0 SWAP2 DUP3 MSTORE PUSH1 0x20 DUP1 DUP4 KECCAK256 SWAP1 SWAP2 ADD SLOAD PUSH1 0x1 PUSH1 0x1 PUSH1 0xA0 SHL SUB AND DUP4 MSTORE DUP3 ADD SWAP3 SWAP1 SWAP3 MSTORE PUSH1 0x40 ADD DUP2 KECCAK256 ADD SLOAD PUSH1 0x40 MLOAD DUP2 ISZERO SWAP1 SWAP3 MUL SWAP2 PUSH1 0x0 DUP2 DUP2 DUP2 DUP6 DUP9 DUP9 CALL SWAP4 POP POP POP POP ISZERO DUP1 ISZERO PUSH2 0x618 JUMPI RETURNDATASIZE PUSH1 0x0 DUP1 RETURNDATACOPY RETURNDATASIZE PUSH1 0x0 REVERT JUMPDEST POP PUSH1 0x1 ADD PUSH2 0x586 JUMP JUMPDEST PUSH1 0x9 SLOAD PUSH1 0xA SLOAD PUSH1 0x0 SWAP2 DUP3 SWAP2 SUB DUP2 PUSH2 0x637 DUP3 PUSH2 0xDB4 JUMP JUMPDEST SWAP1 POP PUSH1 0x9 SLOAD PUSH1 0x11 SLOAD PUSH1 0x10 SLOAD PUSH1 0x11 SLOAD ADD DUP2 PUSH2 0x64D JUMPI INVALID JUMPDEST DIV MUL PUSH1 0xA SLOAD GT ISZERO PUSH2 0x665 JUMPI PUSH1 0x1 SWAP4 POP SWAP2 POP PUSH2 0x699 SWAP1 POP JUMP JUMPDEST PUSH1 0xA SLOAD PUSH1 0x11 SLOAD PUSH1 0x10 SLOAD DUP2 ADD DUP2 PUSH2 0x677 JUMPI INVALID JUMPDEST DIV MUL PUSH1 0x9 SLOAD GT ISZERO PUSH2 0x68F JUMPI PUSH1 0x2 SWAP4 POP SWAP2 POP PUSH2 0x699 SWAP1 POP JUMP JUMPDEST PUSH1 0x0 DUP1 SWAP4 POP SWAP4 POP POP POP JUMPDEST SWAP1 SWAP2 JUMP JUMPDEST PUSH1 0x3 DUP1 SLOAD PUSH1 0x1 DUP2 ADD SWAP1 SWAP2 SSTORE PUSH32 0xC2575A0E9E593C00F959F8C92F12DB2869C3395A3B0502D05E2516446F71F85B ADD DUP1 SLOAD PUSH1 0x1 PUSH1 0x1 PUSH1 0xA0 SHL SUB NOT AND CALLER SWAP1 DUP2 OR SWAP1 SWAP2 SSTORE PUSH1 0x0 DUP2 DUP2 MSTORE PUSH1 0x20 DUP2 DUP2 MSTORE PUSH1 0x40 SWAP2 DUP3 SWAP1 KECCAK256 DUP1 SLOAD CALLVALUE SWAP1 DUP2 ADD SWAP1 SWAP2 SSTORE PUSH1 0x9 DUP1 SLOAD DUP3 ADD SWAP1 SSTORE DUP3 MLOAD SWAP4 DUP5 MSTORE SWAP1 DUP4 ADD MSTORE PUSH1 0x60 DUP3 DUP3 ADD DUP2 SWAP1 MSTORE PUSH1 0x4 SWAP1 DUP4 ADD MSTORE PUSH4 0x6C6F6E67 PUSH1 0xE0 SHL PUSH1 0x80 DUP4 ADD MSTORE MLOAD PUSH32 0x41E3C92BEE255A7EEF9768C9EB9D329DB26FA63CC6C02F9E463BFF1EFA8B1242 SWAP2 DUP2 SWAP1 SUB PUSH1 0xA0 ADD SWAP1 LOG1 PUSH2 0x755 PUSH2 0xB28 JUMP JUMPDEST JUMP JUMPDEST PUSH1 0xA SLOAD DUP2 JUMP JUMPDEST PUSH1 0x0 PUSH1 0x20 MSTORE DUP2 PUSH1 0x0 MSTORE PUSH1 0x40 PUSH1 0x0 KECCAK256 DUP2 PUSH1 0x2 DUP2 LT PUSH2 0x776 JUMPI INVALID JUMPDEST ADD SLOAD SWAP2 POP DUP3 SWAP1 POP JUMP JUMPDEST PUSH1 0x0 DUP1 PUSH1 0x0 PUSH1 0x13 PUSH1 0x0 SWAP1 SLOAD SWAP1 PUSH2 0x100 EXP SWAP1 DIV PUSH1 0x1 PUSH1 0x1 PUSH1 0xA0 SHL SUB AND PUSH1 0x1 PUSH1 0x1 PUSH1 0xA0 SHL SUB AND PUSH4 0xFEAF968C PUSH1 0x40 MLOAD DUP2 PUSH4 0xFFFFFFFF AND PUSH1 0xE0 SHL DUP2 MSTORE PUSH1 0x4 ADD PUSH1 0xA0 PUSH1 0x40 MLOAD DUP1 DUP4 SUB DUP2 DUP7 DUP1 EXTCODESIZE ISZERO DUP1 ISZERO PUSH2 0x7D2 JUMPI PUSH1 0x0 DUP1 REVERT JUMPDEST POP GAS STATICCALL ISZERO DUP1 ISZERO PUSH2 0x7E6 JUMPI RETURNDATASIZE PUSH1 0x0 DUP1 RETURNDATACOPY RETURNDATASIZE PUSH1 0x0 REVERT JUMPDEST POP POP POP POP PUSH1 0x40 MLOAD RETURNDATASIZE PUSH1 0xA0 DUP2 LT ISZERO PUSH2 0x7FC JUMPI PUSH1 0x0 DUP1 REVERT JUMPDEST POP DUP1 MLOAD PUSH1 0x20 DUP3 ADD MLOAD PUSH1 0x40 SWAP1 SWAP3 ADD MLOAD PUSH1 0x15 SLOAD SWAP2 SWAP6 POP SWAP2 SWAP4 POP SWAP1 SWAP2 POP TIMESTAMP GT DUP1 PUSH2 0x823 JUMPI POP PUSH1 0x15 SLOAD ISZERO JUMPDEST PUSH2 0x85E JUMPI PUSH1 0x40 MLOAD PUSH3 0x461BCD PUSH1 0xE5 SHL DUP2 MSTORE PUSH1 0x4 ADD DUP1 DUP1 PUSH1 0x20 ADD DUP3 DUP2 SUB DUP3 MSTORE PUSH1 0x56 DUP2 MSTORE PUSH1 0x20 ADD DUP1 PUSH2 0x15EC PUSH1 0x56 SWAP2 CODECOPY PUSH1 0x60 ADD SWAP2 POP POP PUSH1 0x40 MLOAD DUP1 SWAP2 SUB SWAP1 REVERT JUMPDEST PUSH1 0x0 PUSH2 0x869 DUP4 PUSH2 0xDB4 JUMP JUMPDEST SWAP1 POP PUSH2 0x87B PUSH1 0x7 SLOAD PUSH1 0x8 SLOAD DUP4 DUP6 PUSH2 0xDCF JUMP JUMPDEST PUSH1 0x6 DUP1 SLOAD PUSH10 0xFFFFFFFFFFFFFFFFFFFF NOT AND PUSH10 0xFFFFFFFFFFFFFFFFFFFF SWAP6 SWAP1 SWAP6 AND SWAP5 SWAP1 SWAP5 OR SWAP1 SWAP4 SSTORE PUSH1 0x7 SWAP3 SWAP1 SWAP3 SSTORE POP PUSH1 0x8 SSTORE JUMP JUMPDEST PUSH1 0xC SLOAD DUP2 JUMP JUMPDEST PUSH1 0x0 DUP3 DUP4 DUP4 MUL DUP2 PUSH2 0x8C1 JUMPI INVALID JUMPDEST DIV SWAP4 SWAP3 POP POP POP JUMP JUMPDEST PUSH1 0x3 DUP2 DUP2 SLOAD DUP2 LT PUSH2 0x414 JUMPI INVALID JUMPDEST PUSH1 0x9 SLOAD DUP2 JUMP JUMPDEST PUSH1 0x1 PUSH1 0x20 MSTORE DUP2 PUSH1 0x0 MSTORE PUSH1 0x40 PUSH1 0x0 KECCAK256 DUP2 PUSH1 0x2 DUP2 LT PUSH2 0x776 JUMPI INVALID JUMPDEST PUSH1 0x14 SLOAD PUSH1 0x1 PUSH1 0x1 PUSH1 0xA0 SHL SUB AND DUP2 JUMP JUMPDEST PUSH1 0x2 PUSH1 0x20 MSTORE DUP2 PUSH1 0x0 MSTORE PUSH1 0x40 PUSH1 0x0 KECCAK256 DUP2 PUSH1 0x4 DUP2 LT PUSH2 0x776 JUMPI INVALID JUMPDEST PUSH1 0xD DUP1 SLOAD PUSH1 0x40 DUP1 MLOAD PUSH1 0x20 PUSH1 0x1F PUSH1 0x2 PUSH1 0x0 NOT PUSH2 0x100 PUSH1 0x1 DUP9 AND ISZERO MUL ADD SWAP1 SWAP6 AND SWAP5 SWAP1 SWAP5 DIV SWAP4 DUP5 ADD DUP2 SWAP1 DIV DUP2 MUL DUP3 ADD DUP2 ADD SWAP1 SWAP3 MSTORE DUP3 DUP2 MSTORE PUSH1 0x60 SWAP4 SWAP1 SWAP3 SWAP1 SWAP2 DUP4 ADD DUP3 DUP3 DUP1 ISZERO PUSH2 0x9A9 JUMPI DUP1 PUSH1 0x1F LT PUSH2 0x97E JUMPI PUSH2 0x100 DUP1 DUP4 SLOAD DIV MUL DUP4 MSTORE SWAP2 PUSH1 0x20 ADD SWAP2 PUSH2 0x9A9 JUMP JUMPDEST DUP3 ADD SWAP2 SWAP1 PUSH1 0x0 MSTORE PUSH1 0x20 PUSH1 0x0 KECCAK256 SWAP1 JUMPDEST DUP2 SLOAD DUP2 MSTORE SWAP1 PUSH1 0x1 ADD SWAP1 PUSH1 0x20 ADD DUP1 DUP4 GT PUSH2 0x98C JUMPI DUP3 SWAP1 SUB PUSH1 0x1F AND DUP3 ADD SWAP2 JUMPDEST POP POP POP POP POP SWAP1 POP SWAP1 JUMP JUMPDEST PUSH1 0x5 DUP1 SLOAD PUSH1 0x1 DUP2 ADD DUP3 SSTORE PUSH32 0x36B6384B5ECA791C62761152D0C79BB0604C104A5FB6F4EB0703F3154BB3DB0 ADD DUP1 SLOAD PUSH1 0x1 PUSH1 0x1 PUSH1 0xA0 SHL SUB NOT AND CALLER SWAP1 DUP2 OR SWAP1 SWAP2 SSTORE PUSH1 0x0 DUP2 DUP2 MSTORE PUSH1 0x2 PUSH1 0x20 SWAP1 DUP2 MSTORE PUSH1 0x40 SWAP2 DUP3 SWAP1 KECCAK256 DUP1 SLOAD CALLVALUE SWAP1 DUP2 ADD SWAP1 SWAP2 SSTORE PUSH1 0xB DUP1 SLOAD DUP3 ADD SWAP1 SSTORE DUP3 MLOAD SWAP4 DUP5 MSTORE SWAP1 DUP4 ADD MSTORE PUSH1 0x60 DUP3 DUP3 ADD DUP2 SWAP1 MSTORE DUP3 ADD SWAP3 SWAP1 SWAP3 MSTORE PUSH5 0x6865646765 PUSH1 0xD8 SHL PUSH1 0x80 DUP3 ADD MSTORE SWAP1 MLOAD PUSH32 0x41E3C92BEE255A7EEF9768C9EB9D329DB26FA63CC6C02F9E463BFF1EFA8B1242 SWAP2 DUP2 SWAP1 SUB PUSH1 0xA0 ADD SWAP1 LOG1 PUSH2 0x755 PUSH2 0xB28 JUMP JUMPDEST PUSH1 0x4 DUP1 SLOAD PUSH1 0x1 DUP1 DUP3 ADD SWAP1 SWAP3 SSTORE PUSH32 0x8A35ACFBC15FF81A39AE7D344FD709F28E8600B4AA8C65C6B64BFE7FE36BD19B ADD DUP1 SLOAD PUSH1 0x1 PUSH1 0x1 PUSH1 0xA0 SHL SUB NOT AND CALLER SWAP1 DUP2 OR SWAP1 SWAP2 SSTORE PUSH1 0x0 DUP2 DUP2 MSTORE PUSH1 0x20 SWAP3 DUP4 MSTORE PUSH1 0x40 SWAP1 DUP2 SWAP1 KECCAK256 DUP1 SLOAD CALLVALUE SWAP1 DUP2 ADD SWAP1 SWAP2 SSTORE PUSH1 0xA DUP1 SLOAD DUP3 ADD SWAP1 SSTORE DUP2 MLOAD SWAP3 DUP4 MSTORE SWAP3 DUP3 ADD SWAP3 SWAP1 SWAP3 MSTORE PUSH1 0x60 DUP2 DUP4 ADD DUP2 SWAP1 MSTORE PUSH1 0x5 SWAP1 DUP3 ADD MSTORE PUSH5 0x1CDA1BDC9D PUSH1 0xDA SHL PUSH1 0x80 DUP3 ADD MSTORE SWAP1 MLOAD PUSH32 0x41E3C92BEE255A7EEF9768C9EB9D329DB26FA63CC6C02F9E463BFF1EFA8B1242 SWAP2 DUP2 SWAP1 SUB PUSH1 0xA0 ADD SWAP1 LOG1 PUSH2 0x755 JUMPDEST PUSH1 0x0 PUSH1 0x9 DUP2 SWAP1 SSTORE PUSH1 0xA DUP2 SWAP1 SSTORE PUSH1 0xB DUP2 SWAP1 SSTORE DUP1 DUP1 DUP1 JUMPDEST PUSH1 0x3 SLOAD DUP2 LT ISZERO PUSH2 0xB8F JUMPI PUSH1 0x0 DUP1 PUSH1 0x3 DUP4 DUP2 SLOAD DUP2 LT PUSH2 0xB57 JUMPI INVALID JUMPDEST PUSH1 0x0 SWAP2 DUP3 MSTORE PUSH1 0x20 DUP1 DUP4 KECCAK256 SWAP1 SWAP2 ADD SLOAD PUSH1 0x1 PUSH1 0x1 PUSH1 0xA0 SHL SUB AND DUP4 MSTORE DUP3 ADD SWAP3 SWAP1 SWAP3 MSTORE PUSH1 0x40 ADD DUP2 KECCAK256 ADD SLOAD PUSH1 0x9 DUP1 SLOAD DUP3 ADD SWAP1 SSTORE SWAP3 POP PUSH1 0x1 ADD PUSH2 0xB3D JUMP JUMPDEST POP PUSH1 0x0 JUMPDEST PUSH1 0x3 SLOAD DUP2 LT ISZERO PUSH2 0xC2C JUMPI PUSH1 0x0 DUP1 PUSH1 0x3 DUP4 DUP2 SLOAD DUP2 LT PUSH2 0xBAD JUMPI INVALID JUMPDEST PUSH1 0x0 SWAP2 DUP3 MSTORE PUSH1 0x20 DUP1 DUP4 KECCAK256 SWAP1 SWAP2 ADD SLOAD PUSH1 0x1 PUSH1 0x1 PUSH1 0xA0 SHL SUB AND DUP4 MSTORE DUP3 ADD SWAP3 SWAP1 SWAP3 MSTORE PUSH1 0x40 ADD DUP2 KECCAK256 ADD SLOAD SWAP3 POP PUSH1 0x11 SLOAD PUSH1 0x9 SLOAD DUP5 DUP2 PUSH2 0xBE3 JUMPI INVALID JUMPDEST DIV MUL SWAP2 POP DUP2 PUSH1 0x0 DUP1 PUSH1 0x3 DUP5 DUP2 SLOAD DUP2 LT PUSH2 0xBF8 JUMPI INVALID JUMPDEST PUSH1 0x0 SWAP2 DUP3 MSTORE PUSH1 0x20 DUP1 DUP4 KECCAK256 SWAP1 SWAP2 ADD SLOAD PUSH1 0x1 PUSH1 0x1 PUSH1 0xA0 SHL SUB AND DUP4 MSTORE DUP3 ADD SWAP3 SWAP1 SWAP3 MSTORE PUSH1 0x40 ADD SWAP1 KECCAK256 PUSH1 0x1 ADD SSTORE SWAP3 DUP2 ADD SWAP3 PUSH1 0x1 ADD PUSH2 0xB93 JUMP JUMPDEST POP PUSH1 0x0 SWAP3 POP PUSH1 0x0 JUMPDEST PUSH1 0x4 SLOAD DUP2 LT ISZERO PUSH2 0xC87 JUMPI PUSH1 0x1 PUSH1 0x0 PUSH1 0x4 DUP4 DUP2 SLOAD DUP2 LT PUSH2 0xC4F JUMPI INVALID JUMPDEST PUSH1 0x0 SWAP2 DUP3 MSTORE PUSH1 0x20 DUP1 DUP4 KECCAK256 SWAP1 SWAP2 ADD SLOAD PUSH1 0x1 PUSH1 0x1 PUSH1 0xA0 SHL SUB AND DUP4 MSTORE DUP3 ADD SWAP3 SWAP1 SWAP3 MSTORE PUSH1 0x40 ADD DUP2 KECCAK256 ADD SLOAD PUSH1 0xA DUP1 SLOAD DUP3 ADD SWAP1 SSTORE SWAP3 POP PUSH1 0x1 ADD PUSH2 0xC34 JUMP JUMPDEST POP PUSH1 0x0 JUMPDEST PUSH1 0x4 SLOAD DUP2 LT ISZERO PUSH2 0xCED JUMPI PUSH1 0x11 SLOAD PUSH1 0xA SLOAD DUP5 DUP2 PUSH2 0xCA3 JUMPI INVALID JUMPDEST DIV MUL SWAP2 POP DUP2 PUSH1 0x1 PUSH1 0x0 PUSH1 0x4 DUP5 DUP2 SLOAD DUP2 LT PUSH2 0xCB9 JUMPI INVALID JUMPDEST PUSH1 0x0 SWAP2 DUP3 MSTORE PUSH1 0x20 DUP1 DUP4 KECCAK256 SWAP1 SWAP2 ADD SLOAD PUSH1 0x1 PUSH1 0x1 PUSH1 0xA0 SHL SUB AND DUP4 MSTORE DUP3 ADD SWAP3 SWAP1 SWAP3 MSTORE PUSH1 0x40 ADD SWAP1 KECCAK256 PUSH1 0x1 ADD SSTORE SWAP3 DUP2 ADD SWAP3 PUSH1 0x1 ADD PUSH2 0xC8B JUMP JUMPDEST POP PUSH1 0x0 SWAP3 POP PUSH1 0x0 JUMPDEST PUSH1 0x5 SLOAD DUP2 LT ISZERO PUSH2 0xD44 JUMPI PUSH1 0x2 PUSH1 0x0 PUSH1 0x5 DUP4 DUP2 SLOAD DUP2 LT PUSH2 0xD10 JUMPI INVALID JUMPDEST PUSH1 0x0 SWAP2 DUP3 MSTORE PUSH1 0x20 DUP1 DUP4 KECCAK256 SWAP1 SWAP2 ADD SLOAD PUSH1 0x1 PUSH1 0x1 PUSH1 0xA0 SHL SUB AND DUP4 MSTORE DUP3 ADD SWAP3 SWAP1 SWAP3 MSTORE PUSH1 0x40 ADD DUP2 KECCAK256 ADD SLOAD SWAP4 DUP3 ADD SWAP4 SWAP3 POP PUSH1 0x1 ADD PUSH2 0xCF5 JUMP JUMPDEST POP PUSH1 0x0 JUMPDEST PUSH1 0x5 SLOAD DUP2 LT ISZERO PUSH2 0xDAE JUMPI PUSH1 0x11 SLOAD PUSH1 0xB SLOAD DUP5 DUP2 PUSH2 0xD60 JUMPI INVALID JUMPDEST DIV MUL SWAP2 POP DUP2 PUSH1 0x2 PUSH1 0x0 PUSH1 0x4 DUP5 DUP2 SLOAD DUP2 LT PUSH2 0xD76 JUMPI INVALID JUMPDEST PUSH1 0x0 SWAP2 DUP3 MSTORE PUSH1 0x20 DUP1 DUP4 KECCAK256 SWAP1 SWAP2 ADD SLOAD PUSH1 0x1 PUSH1 0x1 PUSH1 0xA0 SHL SUB AND DUP4 MSTORE DUP3 ADD SWAP3 SWAP1 SWAP3 MSTORE PUSH1 0x40 ADD SWAP1 KECCAK256 PUSH1 0x1 ADD SSTORE PUSH1 0xB DUP1 SLOAD DUP5 ADD SWAP1 SSTORE PUSH1 0x1 ADD PUSH2 0xD48 JUMP JUMPDEST POP POP POP POP JUMP JUMPDEST PUSH1 0x0 DUP1 DUP3 SLT ISZERO PUSH2 0xDC7 JUMPI DUP2 PUSH1 0x0 SUB PUSH2 0xDC9 JUMP JUMPDEST DUP2 JUMPDEST SWAP3 SWAP2 POP POP JUMP JUMPDEST PUSH1 0x0 PUSH1 0x9 SLOAD GT DUP1 ISZERO PUSH2 0xDE3 JUMPI POP PUSH1 0x0 PUSH1 0xA SLOAD GT JUMPDEST PUSH2 0xE1E JUMPI PUSH1 0x40 MLOAD PUSH3 0x461BCD PUSH1 0xE5 SHL DUP2 MSTORE PUSH1 0x4 ADD DUP1 DUP1 PUSH1 0x20 ADD DUP3 DUP2 SUB DUP3 MSTORE PUSH1 0x3E DUP2 MSTORE PUSH1 0x20 ADD DUP1 PUSH2 0x15AE PUSH1 0x3E SWAP2 CODECOPY PUSH1 0x40 ADD SWAP2 POP POP PUSH1 0x40 MLOAD DUP1 SWAP2 SUB SWAP1 REVERT JUMPDEST PUSH2 0xE28 DUP2 DUP5 PUSH2 0xFA9 JUMP JUMPDEST DUP3 DUP2 SUB PUSH1 0x0 DUP6 DUP1 DUP6 SUB DUP2 PUSH2 0xE38 JUMPI INVALID JUMPDEST DIV SWAP1 POP PUSH1 0x0 PUSH1 0x11 SLOAD DUP4 DUP4 PUSH4 0x1E13380 MUL DUP2 PUSH2 0xE4F JUMPI INVALID JUMPDEST DIV MUL SWAP1 POP PUSH1 0x0 PUSH2 0xE5F DUP5 DUP4 PUSH2 0x8B4 JUMP JUMPDEST SWAP1 POP PUSH1 0x0 PUSH1 0x11 SLOAD DUP3 PUSH1 0x9 SLOAD MUL DUP2 PUSH2 0xE72 JUMPI INVALID JUMPDEST DIV SWAP1 POP PUSH1 0x0 JUMPDEST PUSH1 0x3 SLOAD DUP2 LT ISZERO PUSH2 0xF00 JUMPI PUSH1 0x0 DUP1 PUSH1 0x3 DUP4 DUP2 SLOAD DUP2 LT PUSH2 0xE92 JUMPI INVALID JUMPDEST PUSH1 0x0 SWAP2 DUP3 MSTORE PUSH1 0x20 DUP1 DUP4 KECCAK256 SWAP1 SWAP2 ADD SLOAD PUSH1 0x1 PUSH1 0x1 PUSH1 0xA0 SHL SUB AND DUP4 MSTORE DUP3 ADD SWAP3 SWAP1 SWAP3 MSTORE PUSH1 0x40 ADD SWAP1 KECCAK256 PUSH1 0x1 ADD SLOAD DUP3 MUL PUSH1 0x0 DUP1 PUSH1 0x3 DUP5 DUP2 SLOAD DUP2 LT PUSH2 0xECC JUMPI INVALID JUMPDEST PUSH1 0x0 SWAP2 DUP3 MSTORE PUSH1 0x20 DUP1 DUP4 KECCAK256 SWAP1 SWAP2 ADD SLOAD PUSH1 0x1 PUSH1 0x1 PUSH1 0xA0 SHL SUB AND DUP4 MSTORE DUP3 ADD SWAP3 SWAP1 SWAP3 MSTORE PUSH1 0x40 ADD DUP2 KECCAK256 ADD DUP1 SLOAD SWAP1 SWAP2 ADD SWAP1 SSTORE PUSH1 0x1 ADD PUSH2 0xE78 JUMP JUMPDEST POP PUSH1 0x0 JUMPDEST PUSH1 0x4 SLOAD DUP2 LT ISZERO PUSH2 0xF8D JUMPI PUSH1 0x0 DUP1 PUSH1 0x4 DUP4 DUP2 SLOAD DUP2 LT PUSH2 0xF1E JUMPI INVALID JUMPDEST PUSH1 0x0 SWAP2 DUP3 MSTORE PUSH1 0x20 DUP1 DUP4 KECCAK256 SWAP1 SWAP2 ADD SLOAD PUSH1 0x1 PUSH1 0x1 PUSH1 0xA0 SHL SUB AND DUP4 MSTORE DUP3 ADD SWAP3 SWAP1 SWAP3 MSTORE PUSH1 0x40 ADD SWAP1 KECCAK256 PUSH1 0x1 ADD SLOAD DUP3 MUL PUSH1 0x0 DUP1 PUSH1 0x4 DUP5 DUP2 SLOAD DUP2 LT PUSH2 0xF58 JUMPI INVALID JUMPDEST PUSH1 0x0 SWAP2 DUP3 MSTORE PUSH1 0x20 DUP1 DUP4 KECCAK256 SWAP1 SWAP2 ADD SLOAD PUSH1 0x1 PUSH1 0x1 PUSH1 0xA0 SHL SUB AND DUP4 MSTORE DUP3 ADD SWAP3 SWAP1 SWAP3 MSTORE PUSH1 0x40 ADD DUP2 KECCAK256 ADD DUP1 SLOAD SWAP2 SWAP1 SWAP2 SUB SWAP1 SSTORE PUSH1 0x1 ADD PUSH2 0xF04 JUMP JUMPDEST POP PUSH2 0xF96 PUSH2 0x11A9 JUMP JUMPDEST PUSH2 0xF9E PUSH2 0xB28 JUMP JUMPDEST POP POP POP POP POP POP POP POP POP JUMP JUMPDEST PUSH1 0x0 DUP1 DUP1 PUSH1 0x18 PUSH1 0x3C DUP1 DUP7 DUP9 SUB DIV DUP2 PUSH2 0xFBD JUMPI INVALID JUMPDEST DIV DUP2 PUSH2 0xFC5 JUMPI INVALID JUMPDEST DIV SWAP1 POP PUSH1 0x0 JUMPDEST PUSH1 0x3 SLOAD DUP2 LT ISZERO PUSH2 0x106C JUMPI PUSH2 0x16D DUP3 DIV PUSH1 0x11 SLOAD PUSH1 0x16 SLOAD DUP2 PUSH2 0xFE7 JUMPI INVALID JUMPDEST DIV EXP PUSH1 0x0 DUP1 PUSH1 0x3 DUP5 DUP2 SLOAD DUP2 LT PUSH2 0xFF9 JUMPI INVALID JUMPDEST PUSH1 0x0 SWAP2 DUP3 MSTORE PUSH1 0x20 DUP1 DUP4 KECCAK256 SWAP1 SWAP2 ADD SLOAD PUSH1 0x1 PUSH1 0x1 PUSH1 0xA0 SHL SUB AND DUP4 MSTORE DUP3 ADD SWAP3 SWAP1 SWAP3 MSTORE PUSH1 0x40 ADD DUP2 KECCAK256 ADD SLOAD MUL SWAP4 POP DUP4 PUSH1 0x0 DUP1 PUSH1 0x3 DUP5 DUP2 SLOAD DUP2 LT PUSH2 0x1033 JUMPI INVALID JUMPDEST PUSH1 0x0 SWAP2 DUP3 MSTORE PUSH1 0x20 DUP1 DUP4 KECCAK256 SWAP1 SWAP2 ADD SLOAD PUSH1 0x1 PUSH1 0x1 PUSH1 0xA0 SHL SUB AND DUP4 MSTORE DUP3 ADD SWAP3 SWAP1 SWAP3 MSTORE PUSH1 0x40 ADD DUP2 KECCAK256 ADD DUP1 SLOAD SWAP2 SWAP1 SWAP2 SUB SWAP1 SSTORE SWAP2 DUP4 ADD SWAP2 PUSH1 0x1 ADD PUSH2 0xFCB JUMP JUMPDEST POP PUSH1 0x0 JUMPDEST PUSH1 0x4 SLOAD DUP2 LT ISZERO PUSH2 0x1113 JUMPI PUSH2 0x16D DUP3 DIV PUSH1 0x11 SLOAD PUSH1 0x16 SLOAD DUP2 PUSH2 0x108C JUMPI INVALID JUMPDEST DIV EXP PUSH1 0x1 PUSH1 0x0 PUSH1 0x4 DUP5 DUP2 SLOAD DUP2 LT PUSH2 0x109F JUMPI INVALID JUMPDEST PUSH1 0x0 SWAP2 DUP3 MSTORE PUSH1 0x20 DUP1 DUP4 KECCAK256 SWAP1 SWAP2 ADD SLOAD PUSH1 0x1 PUSH1 0x1 PUSH1 0xA0 SHL SUB AND DUP4 MSTORE DUP3 ADD SWAP3 SWAP1 SWAP3 MSTORE PUSH1 0x40 ADD DUP2 KECCAK256 ADD SLOAD MUL SWAP4 POP DUP4 PUSH1 0x1 PUSH1 0x0 PUSH1 0x4 DUP5 DUP2 SLOAD DUP2 LT PUSH2 0x10DA JUMPI INVALID JUMPDEST PUSH1 0x0 SWAP2 DUP3 MSTORE PUSH1 0x20 DUP1 DUP4 KECCAK256 SWAP1 SWAP2 ADD SLOAD PUSH1 0x1 PUSH1 0x1 PUSH1 0xA0 SHL SUB AND DUP4 MSTORE DUP3 ADD SWAP3 SWAP1 SWAP3 MSTORE PUSH1 0x40 ADD DUP2 KECCAK256 ADD DUP1 SLOAD SWAP2 SWAP1 SWAP2 SUB SWAP1 SSTORE SWAP2 DUP4 ADD SWAP2 PUSH1 0x1 ADD PUSH2 0x1070 JUMP JUMPDEST POP PUSH1 0x0 JUMPDEST PUSH1 0x5 SLOAD DUP2 LT ISZERO PUSH2 0x11A1 JUMPI DUP3 PUSH1 0x2 PUSH1 0x0 PUSH1 0x5 DUP5 DUP2 SLOAD DUP2 LT PUSH2 0x1133 JUMPI INVALID JUMPDEST PUSH1 0x0 SWAP2 DUP3 MSTORE PUSH1 0x20 DUP1 DUP4 KECCAK256 SWAP1 SWAP2 ADD SLOAD PUSH1 0x1 PUSH1 0x1 PUSH1 0xA0 SHL SUB AND DUP4 MSTORE DUP3 ADD SWAP3 SWAP1 SWAP3 MSTORE PUSH1 0x40 ADD SWAP1 KECCAK256 PUSH1 0x3 ADD SLOAD MUL PUSH1 0x2 PUSH1 0x0 PUSH1 0x5 DUP5 DUP2 SLOAD DUP2 LT PUSH2 0x116D JUMPI INVALID JUMPDEST PUSH1 0x0 SWAP2 DUP3 MSTORE PUSH1 0x20 DUP1 DUP4 KECCAK256 SWAP1 SWAP2 ADD SLOAD PUSH1 0x1 PUSH1 0x1 PUSH1 0xA0 SHL SUB AND DUP4 MSTORE DUP3 ADD SWAP3 SWAP1 SWAP3 MSTORE PUSH1 0x40 ADD DUP2 KECCAK256 ADD DUP1 SLOAD SWAP1 SWAP2 ADD SWAP1 SSTORE PUSH1 0x1 ADD PUSH2 0x1117 JUMP JUMPDEST POP POP POP POP POP POP JUMP JUMPDEST PUSH1 0x0 PUSH2 0x11B3 PUSH2 0x153F JUMP JUMPDEST PUSH1 0x0 DUP1 PUSH2 0x11BE PUSH2 0x621 JUMP JUMPDEST SWAP2 POP SWAP2 POP DUP2 PUSH1 0xFF AND PUSH1 0x0 EQ ISZERO PUSH2 0x121B JUMPI PUSH1 0x40 DUP1 MLOAD PUSH3 0x461BCD PUSH1 0xE5 SHL DUP2 MSTORE PUSH1 0x20 PUSH1 0x4 DUP3 ADD MSTORE PUSH1 0x19 PUSH1 0x24 DUP3 ADD MSTORE PUSH32 0x436F6E747261637420697320696E206571756C69627269756D00000000000000 PUSH1 0x44 DUP3 ADD MSTORE SWAP1 MLOAD SWAP1 DUP2 SWAP1 SUB PUSH1 0x64 ADD SWAP1 REVERT JUMPDEST DUP2 PUSH1 0xFF AND PUSH1 0x1 EQ ISZERO PUSH2 0x13AC JUMPI PUSH1 0x40 DUP1 MLOAD PUSH1 0x20 DUP2 ADD DUP4 SWAP1 MSTORE DUP2 DUP2 MSTORE PUSH1 0x19 DUP2 DUP4 ADD MSTORE PUSH32 0x4C6F6E67207369646520697320756E6465726578706F73656400000000000000 PUSH1 0x60 DUP3 ADD MSTORE SWAP1 MLOAD PUSH32 0x80B2DCA88BA9FD47ADD0CA019811C8FDF103742981C98A067B3B56973BE0A0AA SWAP2 DUP2 SWAP1 SUB PUSH1 0x80 ADD SWAP1 LOG1 PUSH1 0x0 JUMPDEST PUSH1 0x5 SLOAD DUP2 LT ISZERO PUSH2 0x13A6 JUMPI PUSH1 0x11 SLOAD PUSH1 0x0 DUP1 PUSH1 0x5 DUP5 DUP2 SLOAD DUP2 LT PUSH2 0x12AD JUMPI INVALID JUMPDEST PUSH1 0x0 SWAP2 DUP3 MSTORE PUSH1 0x20 DUP1 DUP4 KECCAK256 SWAP1 SWAP2 ADD SLOAD PUSH1 0x1 PUSH1 0x1 PUSH1 0xA0 SHL SUB AND DUP4 MSTORE DUP3 ADD SWAP3 SWAP1 SWAP3 MSTORE PUSH1 0x40 ADD SWAP1 KECCAK256 PUSH1 0x1 ADD SLOAD DUP4 MUL DUP2 PUSH2 0x12DE JUMPI INVALID JUMPDEST DIV SWAP4 POP DUP4 PUSH1 0x0 DUP1 PUSH1 0x5 DUP5 DUP2 SLOAD DUP2 LT PUSH2 0x12F2 JUMPI INVALID JUMPDEST PUSH1 0x0 SWAP2 DUP3 MSTORE PUSH1 0x20 DUP1 DUP4 KECCAK256 SWAP1 SWAP2 ADD SLOAD PUSH1 0x1 PUSH1 0x1 PUSH1 0xA0 SHL SUB AND DUP4 MSTORE DUP3 ADD SWAP3 SWAP1 SWAP3 MSTORE PUSH1 0x40 ADD DUP2 KECCAK256 ADD PUSH1 0x0 DUP3 DUP3 SLOAD ADD SWAP3 POP POP DUP2 SWAP1 SSTORE POP DUP4 PUSH1 0x2 PUSH1 0x0 PUSH1 0x5 DUP5 DUP2 SLOAD DUP2 LT PUSH2 0x1336 JUMPI INVALID JUMPDEST PUSH1 0x0 SWAP2 DUP3 MSTORE PUSH1 0x20 DUP1 DUP4 KECCAK256 SWAP1 SWAP2 ADD SLOAD PUSH1 0x1 PUSH1 0x1 PUSH1 0xA0 SHL SUB AND DUP4 MSTORE DUP3 ADD SWAP3 SWAP1 SWAP3 MSTORE PUSH1 0x40 ADD SWAP1 KECCAK256 PUSH1 0x2 ADD DUP2 SWAP1 SSTORE POP DUP3 PUSH1 0xFF AND PUSH1 0x2 PUSH1 0x0 PUSH1 0x5 DUP5 DUP2 SLOAD DUP2 LT PUSH2 0x1376 JUMPI INVALID JUMPDEST PUSH1 0x0 SWAP2 DUP3 MSTORE PUSH1 0x20 DUP1 DUP4 KECCAK256 SWAP1 SWAP2 ADD SLOAD PUSH1 0x1 PUSH1 0x1 PUSH1 0xA0 SHL SUB AND DUP4 MSTORE DUP3 ADD SWAP3 SWAP1 SWAP3 MSTORE PUSH1 0x40 ADD SWAP1 KECCAK256 PUSH1 0x3 ADD SSTORE PUSH1 0x1 ADD PUSH2 0x1290 JUMP JUMPDEST POP PUSH2 0x153A JUMP JUMPDEST DUP2 PUSH1 0xFF AND PUSH1 0x2 EQ ISZERO PUSH2 0x153A JUMPI PUSH1 0x40 DUP1 MLOAD PUSH1 0x20 DUP2 ADD DUP4 SWAP1 MSTORE DUP2 DUP2 MSTORE PUSH1 0x1A DUP2 DUP4 ADD MSTORE PUSH32 0x53686F7274207369646520697320756E6465726578706F736564000000000000 PUSH1 0x60 DUP3 ADD MSTORE SWAP1 MLOAD PUSH32 0x80B2DCA88BA9FD47ADD0CA019811C8FDF103742981C98A067B3B56973BE0A0AA SWAP2 DUP2 SWAP1 SUB PUSH1 0x80 ADD SWAP1 LOG1 PUSH1 0x0 JUMPDEST PUSH1 0x5 SLOAD DUP2 LT ISZERO PUSH2 0xDAE JUMPI PUSH1 0x11 SLOAD PUSH1 0x1 PUSH1 0x0 PUSH1 0x5 DUP5 DUP2 SLOAD DUP2 LT PUSH2 0x143F JUMPI INVALID JUMPDEST PUSH1 0x0 SWAP2 DUP3 MSTORE PUSH1 0x20 DUP1 DUP4 KECCAK256 SWAP1 SWAP2 ADD SLOAD PUSH1 0x1 PUSH1 0x1 PUSH1 0xA0 SHL SUB AND DUP4 MSTORE DUP3 ADD SWAP3 SWAP1 SWAP3 MSTORE PUSH1 0x40 ADD SWAP1 KECCAK256 PUSH1 0x1 ADD SLOAD DUP4 MUL DUP2 PUSH2 0x1470 JUMPI INVALID JUMPDEST DIV DUP5 ADD SWAP4 POP DUP4 PUSH1 0x0 DUP1 PUSH1 0x5 DUP5 DUP2 SLOAD DUP2 LT PUSH2 0x1486 JUMPI INVALID JUMPDEST PUSH1 0x0 SWAP2 DUP3 MSTORE PUSH1 0x20 DUP1 DUP4 KECCAK256 SWAP1 SWAP2 ADD SLOAD PUSH1 0x1 PUSH1 0x1 PUSH1 0xA0 SHL SUB AND DUP4 MSTORE DUP3 ADD SWAP3 SWAP1 SWAP3 MSTORE PUSH1 0x40 ADD DUP2 KECCAK256 ADD PUSH1 0x0 DUP3 DUP3 SLOAD ADD SWAP3 POP POP DUP2 SWAP1 SSTORE POP DUP4 PUSH1 0x2 PUSH1 0x0 PUSH1 0x5 DUP5 DUP2 SLOAD DUP2 LT PUSH2 0x14CA JUMPI INVALID JUMPDEST PUSH1 0x0 SWAP2 DUP3 MSTORE PUSH1 0x20 DUP1 DUP4 KECCAK256 SWAP1 SWAP2 ADD SLOAD PUSH1 0x1 PUSH1 0x1 PUSH1 0xA0 SHL SUB AND DUP4 MSTORE DUP3 ADD SWAP3 SWAP1 SWAP3 MSTORE PUSH1 0x40 ADD SWAP1 KECCAK256 PUSH1 0x2 ADD DUP2 SWAP1 SSTORE POP DUP3 PUSH1 0xFF AND PUSH1 0x2 PUSH1 0x0 PUSH1 0x5 DUP5 DUP2 SLOAD DUP2 LT PUSH2 0x150A JUMPI INVALID JUMPDEST PUSH1 0x0 SWAP2 DUP3 MSTORE PUSH1 0x20 DUP1 DUP4 KECCAK256 SWAP1 SWAP2 ADD SLOAD PUSH1 0x1 PUSH1 0x1 PUSH1 0xA0 SHL SUB AND DUP4 MSTORE DUP3 ADD SWAP3 SWAP1 SWAP3 MSTORE PUSH1 0x40 ADD SWAP1 KECCAK256 PUSH1 0x3 ADD SSTORE PUSH1 0x1 ADD PUSH2 0x1421 JUMP JUMPDEST POP POP POP JUMP JUMPDEST PUSH1 0x0 JUMPDEST PUSH1 0x5 SLOAD DUP2 LT ISZERO PUSH2 0x15A4 JUMPI PUSH1 0x0 PUSH1 0x5 DUP3 DUP2 SLOAD DUP2 LT PUSH2 0x155B JUMPI INVALID JUMPDEST PUSH1 0x0 SWAP2 DUP3 MSTORE PUSH1 0x20 DUP1 DUP4 KECCAK256 SWAP2 SWAP1 SWAP2 ADD SLOAD PUSH1 0x1 PUSH1 0x1 PUSH1 0xA0 SHL SUB AND DUP3 MSTORE DUP2 DUP2 MSTORE PUSH1 0x40 DUP1 DUP4 KECCAK256 DUP4 SWAP1 SSTORE PUSH1 0x1 DUP1 DUP4 MSTORE DUP2 DUP5 KECCAK256 DUP5 SWAP1 SSTORE PUSH1 0x2 SWAP1 SWAP3 MSTORE DUP3 KECCAK256 PUSH1 0x3 ADD SWAP2 SWAP1 SWAP2 SSTORE SWAP2 SWAP1 SWAP2 ADD SWAP1 POP PUSH2 0x1542 JUMP JUMPDEST POP PUSH2 0x755 PUSH2 0xB28 JUMP INVALID 0x4C PUSH16 0x6E67206F72205369646520646F657320 PUSH15 0x6F74206861766520616E792066756E PUSH5 0x732C207365 PUSH21 0x74656C656D656E74206E6F7420706F737369626C65 MSTORE8 PUSH6 0x74746C656D65 PUSH15 0x742063616E6E6F7420626520657863 PUSH6 0x637574656420 PUSH3 0x656361 PUSH22 0x736520736574746C656D656E74206578706972792072 PUSH6 0x71756972656D PUSH6 0x6E7420697320 PUSH15 0x6F742066756C6C66696C6C6564A264 PUSH10 0x706673582212206E6B70 0x49 0xAD 0x2B 0x4B 0x5E DIV 0xE PUSH3 0x5AE886 0xAF SHR ORIGIN 0x5D EXTCODESIZE SMOD LOG4 PUSH16 0x2803D07FED9429E50C2164736F6C6343 STOP MOD 0xC STOP CALLER ","sha1":"e64f63d085133ff25d267ec11ac08632520b348b","source":"// SPDX-License-Identifier: MIT\n// Author: Lukas Schreiner\n// Chainlink Hackaton 2021\n\npragma solidity ^0.6.6;\n\nimport \"@chainlink/contracts/src/v0.6/interfaces/AggregatorV3Interface.sol\";\n\ncontract PooledDerivative {\n    // address -> (balance, partition of total balance)\n    mapping(address => uint256[2]) public bookLongSide;\n    mapping(address => uint256[2]) public bookShortSide;\n    // address -> (balance,\n    //              partition of total hedgeContract balance,\n    //              balance used for hegding,\n    //              partition of total balance used for hegding)\n    mapping(address => uint256[4]) public bookHedgeProviders;\n\n    address payable[] public investorsLongSide;\n    address payable[] public investorsShortSide;\n    address payable[] hedgeProviders;\n\n    uint80 previousRoundId;\n    uint256 previousPrice;\n    uint256 previousTimeStamp;\n\n    uint256 public totalBalanceLongSide;\n    uint256 public totalBalanceShortSide;\n    uint256 public totalBalanceHedgingCapital;\n    uint256 public totalBalanceHedgingCapitalExposed;\n\n    string description;\n    uint256 lastPrice;\n    uint256 minUsd = 50 * 10**18;\n    uint256 eqTolerance = 5;\n    uint256 basisPoint = 10000;\n    uint256 hundredPercent = 100 * basisPoint;\n\n    AggregatorV3Interface public underlyingPriceFeed;\n\n    address public contractOwner;\n    uint256 timeStampExpiry;\n    uint256 annualizedFee;\n\n    event NewFunding(address _address, uint256 balance, string book);\n    event ConratctStatus(string status, uint256 balance);\n\n    constructor(\n        address _underlyingPriceFeed,\n        string memory _description,\n        uint256 _timeStampExpiry,\n        uint256 _annualizedFee10000 // e.g. to get 4.55% _annualizedFee10000 = 455\n    ) public {\n        underlyingPriceFeed = AggregatorV3Interface(_underlyingPriceFeed);\n        description = _description;\n        contractOwner = msg.sender;\n        timeStampExpiry = _timeStampExpiry;\n        annualizedFee = _annualizedFee10000;\n    }\n\n    function getContractDescription() public view returns (string memory) {\n        // print a description of the derivative\n        return description;\n    }\n\n    function getResidual() public view returns (uint8, uint256) {\n        // status: long: 1, short: 2, equilibrium: 0\n        int256 bookdiff = int256(totalBalanceShortSide) -\n            int256(totalBalanceLongSide);\n        uint256 bookResidual = abs(bookdiff);\n        // Case 1: Long side is underexposed\n        if (\n            totalBalanceShortSide >\n            ((basisPoint + eqTolerance) / basisPoint) * totalBalanceLongSide\n        ) {\n            return (1, bookResidual);\n            // Case 2: Short side is underexposed\n        } else if (\n            totalBalanceLongSide >\n            ((basisPoint + eqTolerance) / basisPoint) * totalBalanceShortSide\n        ) {\n            return (2, bookResidual);\n        } else {\n            // Case 0: Equilibrium\n            return (0, 0);\n        }\n    }\n\n    function updateBooks() internal {\n        // ToDo: Simplify with general function\n        uint256 sumWeights = 0;\n        totalBalanceLongSide = 0;\n        totalBalanceShortSide = 0;\n        totalBalanceHedgingCapital = 0;\n\n        uint256 balance;\n        uint256 weight;\n\n        for (uint256 i = 0; i < investorsLongSide.length; i++) {\n            balance = bookLongSide[investorsLongSide[i]][0];\n            totalBalanceLongSide += balance;\n        }\n\n        for (uint256 i = 0; i < investorsLongSide.length; i++) {\n            balance = bookLongSide[investorsLongSide[i]][0];\n            weight = (balance / totalBalanceLongSide) * basisPoint;\n            bookLongSide[investorsLongSide[i]][1] = weight;\n            sumWeights += weight;\n        }\n\n        //require(sumWeights <= hundredPercent,\"LongSide: Weights do not sum to 100%\");\n\n        sumWeights = 0;\n        for (uint256 i = 0; i < investorsShortSide.length; i++) {\n            balance = bookShortSide[investorsShortSide[i]][0];\n            totalBalanceShortSide += balance;\n        }\n        for (uint256 i = 0; i < investorsShortSide.length; i++) {\n            weight = (balance / totalBalanceShortSide) * basisPoint;\n            bookShortSide[investorsShortSide[i]][1] = weight;\n            sumWeights += weight;\n        }\n        //require(sumWeights <= hundredPercent, \"LongSide: Weights do not sum to 100%\");\n\n        sumWeights = 0;\n        for (uint256 i = 0; i < hedgeProviders.length; i++) {\n            balance = bookHedgeProviders[hedgeProviders[i]][0];\n            sumWeights += weight;\n        }\n\n        for (uint256 i = 0; i < hedgeProviders.length; i++) {\n            weight = (balance / totalBalanceHedgingCapital) * basisPoint;\n            bookHedgeProviders[investorsShortSide[i]][1] = weight;\n\n            totalBalanceHedgingCapital += balance;\n        }\n        //require(sumWeights <= hundredPercent,\"LongSide: Weights do not sum to 100%\");\n    }\n\n    // ToDo: Summarize in one function\n    function enterLongSide() public payable {\n        investorsLongSide.push(msg.sender);\n        bookLongSide[msg.sender][0] += msg.value;\n        totalBalanceLongSide += msg.value;\n        emit NewFunding(msg.sender, msg.value, \"long\");\n        updateBooks();\n    }\n\n    function enterShortSide() public payable {\n        // requireMinimum(msg.value);\n        investorsShortSide.push(msg.sender);\n        bookShortSide[msg.sender][0] += msg.value;\n        totalBalanceShortSide += msg.value;\n        emit NewFunding(msg.sender, msg.value, \"short\");\n        updateBooks();\n    }\n\n    function provideHedgeCapital() public payable {\n        // requireMinimum(msg.value);\n        hedgeProviders.push(msg.sender);\n        bookHedgeProviders[msg.sender][0] += msg.value;\n        totalBalanceHedgingCapital += msg.value;\n        emit NewFunding(msg.sender, msg.value, \"hedge\");\n        updateBooks();\n    }\n\n    function abs(int256 x) private pure returns (uint256) {\n        return x >= 0 ? uint256(x) : uint256(-x);\n    }\n\n    function callSettlement() public {\n        (\n            uint80 _latestRoundID,\n            int256 _latestPrice,\n            uint256 _latestTimestamp,\n            ,\n\n        ) = underlyingPriceFeed.latestRoundData();\n\n        // The settlement can be time conditioned e.g. only at time expiry (see European Options)\n        require(\n            timeStampExpiry < block.timestamp || timeStampExpiry == 0,\n            \"Settlement cannot be excecuted because settlement expiry requirement is not fullfilled\"\n        );\n\n        uint256 _ulatestPrice = abs(_latestPrice);\n\n        settlementFunction(\n            previousPrice,\n            previousTimeStamp,\n            _ulatestPrice,\n            _latestTimestamp\n        );\n\n        previousRoundId = _latestRoundID;\n        previousPrice = _ulatestPrice;\n        previousTimeStamp = _latestTimestamp;\n    }\n\n    function settlementFunction(\n        uint256 _previousPrice,\n        uint256 _previousTimestamp,\n        uint256 _latestPrice,\n        uint256 _latestTimestamp\n    ) internal {\n        require(\n            totalBalanceLongSide > 0 && totalBalanceShortSide > 0,\n            \"Long or Side does not have any funds, settelement not possible\"\n        );\n        transferFees(_latestTimestamp, _previousTimestamp);\n        uint256 timeDifference = (_latestTimestamp - _previousTimestamp);\n        uint256 asset_return = (_latestPrice - _previousPrice) / _previousPrice;\n        uint256 asset_return_annualized = ((asset_return *\n            (365 * 24 * 60 * 60)) / timeDifference) * basisPoint;\n\n        uint256 returnLongSide = payoffFunction(\n            timeDifference,\n            asset_return_annualized\n        );\n\n        uint256 pnlLongSide = (totalBalanceLongSide * returnLongSide) /\n            basisPoint;\n\n        // ToDo: Check Long PnL == Short PnL\n        for (uint256 i = 0; i < investorsLongSide.length; i++) {\n            bookLongSide[investorsLongSide[i]][0] +=\n                pnlLongSide *\n                bookLongSide[investorsLongSide[i]][1];\n        }\n        for (uint256 i = 0; i < investorsShortSide.length; i++) {\n            bookLongSide[investorsShortSide[i]][0] -=\n                pnlLongSide *\n                bookLongSide[investorsShortSide[i]][1];\n        }\n        hedgeContract();\n        updateBooks();\n    }\n\n    function payoffFunction(\n        uint256 timeDifference,\n        uint256 asset_return_annualized10000\n    ) public view returns (uint256) {\n        // This payoff function tracks the underlying 1:1\n        return (asset_return_annualized10000 * timeDifference) / timeDifference;\n    }\n\n    function withdrawFunds() public payable {\n        callSettlement();\n\n        uint256 refund = bookLongSide[msg.sender][0] +\n            bookShortSide[msg.sender][0];\n        msg.sender.transfer(refund);\n        bookLongSide[msg.sender][0] = 0;\n        bookShortSide[msg.sender][0] = 0;\n        bookLongSide[msg.sender][1] = 0;\n        bookShortSide[msg.sender][1] = 0;\n        updateBooks();\n    }\n\n    function terminateContract() public {\n        require(msg.sender == contractOwner);\n        callSettlement();\n        for (uint256 i = 0; i < investorsLongSide.length; i++) {\n            investorsLongSide[i].transfer(\n                bookLongSide[investorsLongSide[i]][0]\n            );\n        }\n\n        for (uint256 i = 0; i < investorsShortSide.length; i++) {\n            investorsShortSide[i].transfer(\n                bookShortSide[investorsShortSide[i]][0]\n            );\n        }\n    }\n\n    function resetHedge() internal {\n        for (uint256 i = 0; i < hedgeProviders.length; i++) {\n            address hedgeProvider = hedgeProviders[i];\n            bookLongSide[hedgeProvider][0] = 0;\n            bookShortSide[hedgeProvider][0] = 0;\n            bookHedgeProviders[hedgeProvider][3] = 0;\n        }\n        updateBooks();\n    }\n\n    function hedgeContract() internal {\n        uint256 hedgeProvided;\n        resetHedge();\n\n        (uint8 status, uint256 residual) = getResidual();\n        // Case 0: Equilibrium\n        require(status != 0, \"Contract is in equlibrium\");\n        // Case 1: Long side is underexposed\n        if (status == 1) {\n            emit ConratctStatus(\"Long side is underexposed\", residual);\n            for (uint256 i = 0; i < hedgeProviders.length; i++) {\n                hedgeProvided =\n                    (residual * bookLongSide[hedgeProviders[i]][1]) /\n                    basisPoint;\n                bookLongSide[hedgeProviders[i]][0] += hedgeProvided;\n                bookHedgeProviders[hedgeProviders[i]][2] = hedgeProvided;\n                bookHedgeProviders[hedgeProviders[i]][3] = status;\n            }\n            // Case 2: Long side is underexposed\n        } else if (status == 2) {\n            emit ConratctStatus(\"Short side is underexposed\", residual);\n            for (uint256 i = 0; i < hedgeProviders.length; i++) {\n                hedgeProvided +=\n                    (residual * bookShortSide[hedgeProviders[i]][1]) /\n                    basisPoint;\n                bookLongSide[hedgeProviders[i]][0] += hedgeProvided;\n                bookHedgeProviders[hedgeProviders[i]][2] = hedgeProvided;\n                bookHedgeProviders[hedgeProviders[i]][3] = status;\n            }\n        }\n    }\n\n    function transferFees(uint256 latestTimestamp, uint256 previousTimestamp)\n        internal\n    {\n        uint256 accountFee;\n        uint256 totalFees;\n        uint256 timeDifference = (latestTimestamp - previousTimestamp) /\n            60 /\n            60 /\n            24;\n\n        for (uint256 i = 0; i < investorsLongSide.length; i++) {\n            accountFee =\n                bookLongSide[investorsLongSide[i]][0] *\n                (annualizedFee / basisPoint)**(timeDifference / 365);\n            bookLongSide[investorsLongSide[i]][0] -= accountFee;\n            totalFees += accountFee;\n        }\n\n        for (uint256 i = 0; i < investorsShortSide.length; i++) {\n            accountFee =\n                bookShortSide[investorsShortSide[i]][0] *\n                (annualizedFee / basisPoint)**(timeDifference / 365);\n            bookShortSide[investorsShortSide[i]][0] -= accountFee;\n            totalFees += accountFee;\n        }\n\n        for (uint256 i = 0; i < hedgeProviders.length; i++) {\n            bookHedgeProviders[hedgeProviders[i]][0] +=\n                bookHedgeProviders[hedgeProviders[i]][3] *\n                totalFees;\n        }\n    }\n}\n","sourcePath":"contracts/PooledDerivative.sol","type":"contract","deployment":{"address":"0x8026d6bdB588B84581973Ec473156879d99ff8e8","chainid":"4","blockHeight":9722562}}