{
  "abi": [
    {
      "inputs": [
        {
          "internalType": "address",
          "name": "_underlyingPriceFeed",
          "type": "address"
        },
        {
          "internalType": "address",
          "name": "_ethUsdPriceFeed",
          "type": "address"
        },
        {
          "internalType": "string",
          "name": "_description",
          "type": "string"
        }
      ],
      "stateMutability": "nonpayable",
      "type": "constructor"
    },
    {
      "inputs": [],
      "name": "callSettlement",
      "outputs": [],
      "stateMutability": "nonpayable",
      "type": "function"
    },
    {
      "inputs": [],
      "name": "computeAmoutNeededForHedge",
      "outputs": [],
      "stateMutability": "view",
      "type": "function"
    },
    {
      "inputs": [],
      "name": "computeFees",
      "outputs": [],
      "stateMutability": "nonpayable",
      "type": "function"
    },
    {
      "inputs": [],
      "name": "enterLongSide",
      "outputs": [],
      "stateMutability": "payable",
      "type": "function"
    },
    {
      "inputs": [],
      "name": "enterShortSide",
      "outputs": [],
      "stateMutability": "payable",
      "type": "function"
    },
    {
      "inputs": [],
      "name": "ethUsdPriceFeed",
      "outputs": [
        {
          "internalType": "contract AggregatorV3Interface",
          "name": "",
          "type": "address"
        }
      ],
      "stateMutability": "view",
      "type": "function"
    },
    {
      "inputs": [],
      "name": "getContractDescription",
      "outputs": [
        {
          "internalType": "string",
          "name": "",
          "type": "string"
        }
      ],
      "stateMutability": "view",
      "type": "function"
    },
    {
      "inputs": [],
      "name": "getStatus",
      "outputs": [
        {
          "internalType": "string",
          "name": "",
          "type": "string"
        }
      ],
      "stateMutability": "view",
      "type": "function"
    },
    {
      "inputs": [],
      "name": "settlementFunction",
      "outputs": [],
      "stateMutability": "nonpayable",
      "type": "function"
    },
    {
      "inputs": [],
      "name": "terminateContract",
      "outputs": [],
      "stateMutability": "nonpayable",
      "type": "function"
    },
    {
      "inputs": [],
      "name": "totalBalanceLongSide",
      "outputs": [
        {
          "internalType": "uint256",
          "name": "",
          "type": "uint256"
        }
      ],
      "stateMutability": "view",
      "type": "function"
    },
    {
      "inputs": [],
      "name": "totalBalanceShortSide",
      "outputs": [
        {
          "internalType": "uint256",
          "name": "",
          "type": "uint256"
        }
      ],
      "stateMutability": "view",
      "type": "function"
    },
    {
      "inputs": [],
      "name": "transferFees",
      "outputs": [],
      "stateMutability": "nonpayable",
      "type": "function"
    },
    {
      "inputs": [],
      "name": "underlyingPriceFeed",
      "outputs": [
        {
          "internalType": "contract AggregatorV3Interface",
          "name": "",
          "type": "address"
        }
      ],
      "stateMutability": "view",
      "type": "function"
    },
    {
      "inputs": [],
      "name": "withdrawFunds",
      "outputs": [],
      "stateMutability": "nonpayable",
      "type": "function"
    }
  ],
  "bytecode": "60806040526802b5e3af16b1880000600855600560095534801561002257600080fd5b5060405161076d38038061076d8339818101604052606081101561004557600080fd5b8151602083015160408085018051915193959294830192918464010000000082111561007057600080fd5b90830190602082018581111561008557600080fd5b825164010000000081118282018810171561009f57600080fd5b82525081516020918201929091019080838360005b838110156100cc5781810151838201526020016100b4565b50505050905090810190601f1680156100f95780820380516001836020036101000a031916815260200191505b506040525050600a80546001600160a01b038087166001600160a01b031992831617909255600b80549286169290911691909117905550805161014390600690602084019061014c565b505050506101df565b828054600181600116156101000203166002900490600052602060002090601f016020900481019282601f1061018d57805160ff19168380011785556101ba565b828001600101855582156101ba579182015b828111156101ba57825182559160200191906001019061019f565b506101c69291506101ca565b5090565b5b808211156101c657600081556001016101cb565b61057f806101ee6000396000f3fe6080604052600436106100e85760003560e01c80635a8b216a1161008a578063c2fbe7bc11610059578063c2fbe7bc146100ed578063d12bcb1214610218578063ddd00fe7146100ed578063fca8175c1461022d576100e8565b80635a8b216a146101d4578063614df878146101dc57806363a07470146100ed5780639ae9a7c814610203576100e8565b80632fd949ca116100c65780632fd949ca146100ed57806342f6fb29146101355780634e69d5601461014a5780634e78be90146100ed576100e8565b806324600fc3146100ed5780632ac0a1a5146101045780632b7e569e146100ed575b600080fd5b3480156100f957600080fd5b50610102610235565b005b34801561011057600080fd5b50610119610237565b604080516001600160a01b039092168252519081900360200190f35b34801561014157600080fd5b50610119610246565b34801561015657600080fd5b5061015f610255565b6040805160208082528351818301528351919283929083019185019080838360005b83811015610199578181015183820152602001610181565b50505050905090810190601f1680156101c65780820380516001836020036101000a031916815260200191505b509250505060405180910390f35b610102610333565b3480156101e857600080fd5b506101f161039e565b60408051918252519081900360200190f35b34801561020f57600080fd5b506101f16103a4565b34801561022457600080fd5b5061015f6103aa565b610102610440565b565b600a546001600160a01b031681565b600b546001600160a01b031681565b606060045460646009546064018161026957fe5b040260055411156102ae575060408051808201909152601a81527f53686f7274207369646520697320756e6465726578706f7365640000000000006020820152610330565b6005546064600954606401816102c057fe5b04026004541115610305575060408051808201909152601981527f4c6f6e67207369646520697320756e6465726578706f736564000000000000006020820152610330565b5060408051808201909152601281527110dbdb9d1c9858dd081a5cc81a195919d95960721b60208201525b90565b61033c346104ab565b60028054600181019091557f405787fa12a823e0f2b7631cc41b3ba8828b3321ca811111fa75cd3aa3bb5ace0180546001600160a01b031916339081179091556000908152602081905260409020805434908101909155600480549091019055565b60055481565b60045481565b60068054604080516020601f60026000196101006001881615020190951694909404938401819004810282018101909252828152606093909290918301828280156104365780601f1061040b57610100808354040283529160200191610436565b820191906000526020600020905b81548152906001019060200180831161041957829003601f168201915b5050505050905090565b610449346104ab565b60028054600181019091557f405787fa12a823e0f2b7631cc41b3ba8828b3321ca811111fa75cd3aa3bb5ace0180546001600160a01b031916339081179091556000908152602081905260409020805434908101909155600580549091019055565b600b5460408051633fabe5a360e21b815290516000926001600160a01b03169163feaf968c9160048083019260a0929190829003018186803b1580156104f057600080fd5b505afa158015610504573d6000803e3d6000fd5b505050506040513d60a081101561051a57600080fd5b5060200151905060006402540be4008202838161053357fe5b049050600854811161054457600080fd5b50505056fea26469706673582212202b262dacd64da5800993f300e49e3da3cc4daeb9e6027f19e42b46a4e1e41e2464736f6c634300060c0033",
  "bytecodeSha1": "d6eb56e8a36a85de3748353b71ea77d980a6ddad",
  "compiler": {
    "evm_version": "istanbul",
    "optimizer": {
      "enabled": true,
      "runs": 200
    },
    "version": "0.6.12+commit.27d51765"
  },
  "contractName": "PooledDerivative",
  "language": "Solidity",
  "natspec": {
    "kind": "dev",
    "methods": {},
    "version": 1
  },
  "opcodes": "PUSH1 0x80 PUSH1 0x40 MSTORE PUSH1 0x4 CALLDATASIZE LT PUSH2 0xE8 JUMPI PUSH1 0x0 CALLDATALOAD PUSH1 0xE0 SHR DUP1 PUSH4 0x5A8B216A GT PUSH2 0x8A JUMPI DUP1 PUSH4 0xC2FBE7BC GT PUSH2 0x59 JUMPI DUP1 PUSH4 0xC2FBE7BC EQ PUSH2 0xED JUMPI DUP1 PUSH4 0xD12BCB12 EQ PUSH2 0x218 JUMPI DUP1 PUSH4 0xDDD00FE7 EQ PUSH2 0xED JUMPI DUP1 PUSH4 0xFCA8175C EQ PUSH2 0x22D JUMPI PUSH2 0xE8 JUMP JUMPDEST DUP1 PUSH4 0x5A8B216A EQ PUSH2 0x1D4 JUMPI DUP1 PUSH4 0x614DF878 EQ PUSH2 0x1DC JUMPI DUP1 PUSH4 0x63A07470 EQ PUSH2 0xED JUMPI DUP1 PUSH4 0x9AE9A7C8 EQ PUSH2 0x203 JUMPI PUSH2 0xE8 JUMP JUMPDEST DUP1 PUSH4 0x2FD949CA GT PUSH2 0xC6 JUMPI DUP1 PUSH4 0x2FD949CA EQ PUSH2 0xED JUMPI DUP1 PUSH4 0x42F6FB29 EQ PUSH2 0x135 JUMPI DUP1 PUSH4 0x4E69D560 EQ PUSH2 0x14A JUMPI DUP1 PUSH4 0x4E78BE90 EQ PUSH2 0xED JUMPI PUSH2 0xE8 JUMP JUMPDEST DUP1 PUSH4 0x24600FC3 EQ PUSH2 0xED JUMPI DUP1 PUSH4 0x2AC0A1A5 EQ PUSH2 0x104 JUMPI DUP1 PUSH4 0x2B7E569E EQ PUSH2 0xED JUMPI JUMPDEST PUSH1 0x0 DUP1 REVERT JUMPDEST CALLVALUE DUP1 ISZERO PUSH2 0xF9 JUMPI PUSH1 0x0 DUP1 REVERT JUMPDEST POP PUSH2 0x102 PUSH2 0x235 JUMP JUMPDEST STOP JUMPDEST CALLVALUE DUP1 ISZERO PUSH2 0x110 JUMPI PUSH1 0x0 DUP1 REVERT JUMPDEST POP PUSH2 0x119 PUSH2 0x237 JUMP JUMPDEST PUSH1 0x40 DUP1 MLOAD PUSH1 0x1 PUSH1 0x1 PUSH1 0xA0 SHL SUB SWAP1 SWAP3 AND DUP3 MSTORE MLOAD SWAP1 DUP2 SWAP1 SUB PUSH1 0x20 ADD SWAP1 RETURN JUMPDEST CALLVALUE DUP1 ISZERO PUSH2 0x141 JUMPI PUSH1 0x0 DUP1 REVERT JUMPDEST POP PUSH2 0x119 PUSH2 0x246 JUMP JUMPDEST CALLVALUE DUP1 ISZERO PUSH2 0x156 JUMPI PUSH1 0x0 DUP1 REVERT JUMPDEST POP PUSH2 0x15F PUSH2 0x255 JUMP JUMPDEST PUSH1 0x40 DUP1 MLOAD PUSH1 0x20 DUP1 DUP3 MSTORE DUP4 MLOAD DUP2 DUP4 ADD MSTORE DUP4 MLOAD SWAP2 SWAP3 DUP4 SWAP3 SWAP1 DUP4 ADD SWAP2 DUP6 ADD SWAP1 DUP1 DUP4 DUP4 PUSH1 0x0 JUMPDEST DUP4 DUP2 LT ISZERO PUSH2 0x199 JUMPI DUP2 DUP2 ADD MLOAD DUP4 DUP3 ADD MSTORE PUSH1 0x20 ADD PUSH2 0x181 JUMP JUMPDEST POP POP POP POP SWAP1 POP SWAP1 DUP2 ADD SWAP1 PUSH1 0x1F AND DUP1 ISZERO PUSH2 0x1C6 JUMPI DUP1 DUP3 SUB DUP1 MLOAD PUSH1 0x1 DUP4 PUSH1 0x20 SUB PUSH2 0x100 EXP SUB NOT AND DUP2 MSTORE PUSH1 0x20 ADD SWAP2 POP JUMPDEST POP SWAP3 POP POP POP PUSH1 0x40 MLOAD DUP1 SWAP2 SUB SWAP1 RETURN JUMPDEST PUSH2 0x102 PUSH2 0x333 JUMP JUMPDEST CALLVALUE DUP1 ISZERO PUSH2 0x1E8 JUMPI PUSH1 0x0 DUP1 REVERT JUMPDEST POP PUSH2 0x1F1 PUSH2 0x39E JUMP JUMPDEST PUSH1 0x40 DUP1 MLOAD SWAP2 DUP3 MSTORE MLOAD SWAP1 DUP2 SWAP1 SUB PUSH1 0x20 ADD SWAP1 RETURN JUMPDEST CALLVALUE DUP1 ISZERO PUSH2 0x20F JUMPI PUSH1 0x0 DUP1 REVERT JUMPDEST POP PUSH2 0x1F1 PUSH2 0x3A4 JUMP JUMPDEST CALLVALUE DUP1 ISZERO PUSH2 0x224 JUMPI PUSH1 0x0 DUP1 REVERT JUMPDEST POP PUSH2 0x15F PUSH2 0x3AA JUMP JUMPDEST PUSH2 0x102 PUSH2 0x440 JUMP JUMPDEST JUMP JUMPDEST PUSH1 0xA SLOAD PUSH1 0x1 PUSH1 0x1 PUSH1 0xA0 SHL SUB AND DUP2 JUMP JUMPDEST PUSH1 0xB SLOAD PUSH1 0x1 PUSH1 0x1 PUSH1 0xA0 SHL SUB AND DUP2 JUMP JUMPDEST PUSH1 0x60 PUSH1 0x4 SLOAD PUSH1 0x64 PUSH1 0x9 SLOAD PUSH1 0x64 ADD DUP2 PUSH2 0x269 JUMPI INVALID JUMPDEST DIV MUL PUSH1 0x5 SLOAD GT ISZERO PUSH2 0x2AE JUMPI POP PUSH1 0x40 DUP1 MLOAD DUP1 DUP3 ADD SWAP1 SWAP2 MSTORE PUSH1 0x1A DUP2 MSTORE PUSH32 0x53686F7274207369646520697320756E6465726578706F736564000000000000 PUSH1 0x20 DUP3 ADD MSTORE PUSH2 0x330 JUMP JUMPDEST PUSH1 0x5 SLOAD PUSH1 0x64 PUSH1 0x9 SLOAD PUSH1 0x64 ADD DUP2 PUSH2 0x2C0 JUMPI INVALID JUMPDEST DIV MUL PUSH1 0x4 SLOAD GT ISZERO PUSH2 0x305 JUMPI POP PUSH1 0x40 DUP1 MLOAD DUP1 DUP3 ADD SWAP1 SWAP2 MSTORE PUSH1 0x19 DUP2 MSTORE PUSH32 0x4C6F6E67207369646520697320756E6465726578706F73656400000000000000 PUSH1 0x20 DUP3 ADD MSTORE PUSH2 0x330 JUMP JUMPDEST POP PUSH1 0x40 DUP1 MLOAD DUP1 DUP3 ADD SWAP1 SWAP2 MSTORE PUSH1 0x12 DUP2 MSTORE PUSH18 0x10DBDB9D1C9858DD081A5CC81A195919D959 PUSH1 0x72 SHL PUSH1 0x20 DUP3 ADD MSTORE JUMPDEST SWAP1 JUMP JUMPDEST PUSH2 0x33C CALLVALUE PUSH2 0x4AB JUMP JUMPDEST PUSH1 0x2 DUP1 SLOAD PUSH1 0x1 DUP2 ADD SWAP1 SWAP2 SSTORE PUSH32 0x405787FA12A823E0F2B7631CC41B3BA8828B3321CA811111FA75CD3AA3BB5ACE ADD DUP1 SLOAD PUSH1 0x1 PUSH1 0x1 PUSH1 0xA0 SHL SUB NOT AND CALLER SWAP1 DUP2 OR SWAP1 SWAP2 SSTORE PUSH1 0x0 SWAP1 DUP2 MSTORE PUSH1 0x20 DUP2 SWAP1 MSTORE PUSH1 0x40 SWAP1 KECCAK256 DUP1 SLOAD CALLVALUE SWAP1 DUP2 ADD SWAP1 SWAP2 SSTORE PUSH1 0x4 DUP1 SLOAD SWAP1 SWAP2 ADD SWAP1 SSTORE JUMP JUMPDEST PUSH1 0x5 SLOAD DUP2 JUMP JUMPDEST PUSH1 0x4 SLOAD DUP2 JUMP JUMPDEST PUSH1 0x6 DUP1 SLOAD PUSH1 0x40 DUP1 MLOAD PUSH1 0x20 PUSH1 0x1F PUSH1 0x2 PUSH1 0x0 NOT PUSH2 0x100 PUSH1 0x1 DUP9 AND ISZERO MUL ADD SWAP1 SWAP6 AND SWAP5 SWAP1 SWAP5 DIV SWAP4 DUP5 ADD DUP2 SWAP1 DIV DUP2 MUL DUP3 ADD DUP2 ADD SWAP1 SWAP3 MSTORE DUP3 DUP2 MSTORE PUSH1 0x60 SWAP4 SWAP1 SWAP3 SWAP1 SWAP2 DUP4 ADD DUP3 DUP3 DUP1 ISZERO PUSH2 0x436 JUMPI DUP1 PUSH1 0x1F LT PUSH2 0x40B JUMPI PUSH2 0x100 DUP1 DUP4 SLOAD DIV MUL DUP4 MSTORE SWAP2 PUSH1 0x20 ADD SWAP2 PUSH2 0x436 JUMP JUMPDEST DUP3 ADD SWAP2 SWAP1 PUSH1 0x0 MSTORE PUSH1 0x20 PUSH1 0x0 KECCAK256 SWAP1 JUMPDEST DUP2 SLOAD DUP2 MSTORE SWAP1 PUSH1 0x1 ADD SWAP1 PUSH1 0x20 ADD DUP1 DUP4 GT PUSH2 0x419 JUMPI DUP3 SWAP1 SUB PUSH1 0x1F AND DUP3 ADD SWAP2 JUMPDEST POP POP POP POP POP SWAP1 POP SWAP1 JUMP JUMPDEST PUSH2 0x449 CALLVALUE PUSH2 0x4AB JUMP JUMPDEST PUSH1 0x2 DUP1 SLOAD PUSH1 0x1 DUP2 ADD SWAP1 SWAP2 SSTORE PUSH32 0x405787FA12A823E0F2B7631CC41B3BA8828B3321CA811111FA75CD3AA3BB5ACE ADD DUP1 SLOAD PUSH1 0x1 PUSH1 0x1 PUSH1 0xA0 SHL SUB NOT AND CALLER SWAP1 DUP2 OR SWAP1 SWAP2 SSTORE PUSH1 0x0 SWAP1 DUP2 MSTORE PUSH1 0x20 DUP2 SWAP1 MSTORE PUSH1 0x40 SWAP1 KECCAK256 DUP1 SLOAD CALLVALUE SWAP1 DUP2 ADD SWAP1 SWAP2 SSTORE PUSH1 0x5 DUP1 SLOAD SWAP1 SWAP2 ADD SWAP1 SSTORE JUMP JUMPDEST PUSH1 0xB SLOAD PUSH1 0x40 DUP1 MLOAD PUSH4 0x3FABE5A3 PUSH1 0xE2 SHL DUP2 MSTORE SWAP1 MLOAD PUSH1 0x0 SWAP3 PUSH1 0x1 PUSH1 0x1 PUSH1 0xA0 SHL SUB AND SWAP2 PUSH4 0xFEAF968C SWAP2 PUSH1 0x4 DUP1 DUP4 ADD SWAP3 PUSH1 0xA0 SWAP3 SWAP2 SWAP1 DUP3 SWAP1 SUB ADD DUP2 DUP7 DUP1 EXTCODESIZE ISZERO DUP1 ISZERO PUSH2 0x4F0 JUMPI PUSH1 0x0 DUP1 REVERT JUMPDEST POP GAS STATICCALL ISZERO DUP1 ISZERO PUSH2 0x504 JUMPI RETURNDATASIZE PUSH1 0x0 DUP1 RETURNDATACOPY RETURNDATASIZE PUSH1 0x0 REVERT JUMPDEST POP POP POP POP PUSH1 0x40 MLOAD RETURNDATASIZE PUSH1 0xA0 DUP2 LT ISZERO PUSH2 0x51A JUMPI PUSH1 0x0 DUP1 REVERT JUMPDEST POP PUSH1 0x20 ADD MLOAD SWAP1 POP PUSH1 0x0 PUSH5 0x2540BE400 DUP3 MUL DUP4 DUP2 PUSH2 0x533 JUMPI INVALID JUMPDEST DIV SWAP1 POP PUSH1 0x8 SLOAD DUP2 GT PUSH2 0x544 JUMPI PUSH1 0x0 DUP1 REVERT JUMPDEST POP POP POP JUMP INVALID LOG2 PUSH5 0x6970667358 0x22 SLT KECCAK256 0x2B 0x26 0x2D 0xAC 0xD6 0x4D 0xA5 DUP1 MULMOD SWAP4 RETURN STOP 0xE4 SWAP15 RETURNDATASIZE LOG3 0xCC 0x4D 0xAE 0xB9 0xE6 MUL PUSH32 0x19E42B46A4E1E41E2464736F6C634300060C0033000000000000000000000000 ",
  "sha1": "cc56e8e7a5280e2df29e3b1da5360c8aa26a056f",
  "source": "// SPDX-License-Identifier: MIT\n\npragma solidity ^0.6.6;\n\nimport \"@chainlink/contracts/src/v0.6/interfaces/AggregatorV3Interface.sol\";\n\ncontract PooledDerivative {\n    mapping(address => uint256) private bookLongSide;\n    mapping(address => uint256) private bookShortSide;\n    address[] private investorsLongSide;\n    address[] private investorsShortSide;\n\n    uint256 public totalBalanceLongSide;\n    uint256 public totalBalanceShortSide;\n\n    string description;\n    uint256 lastPrice;\n    uint256 minUsd = 50 * 10**18;\n    uint256 eqTolerance = 5;\n\n    AggregatorV3Interface public underlyingPriceFeed;\n    AggregatorV3Interface public ethUsdPriceFeed;\n\n    constructor(\n        address _underlyingPriceFeed,\n        address _ethUsdPriceFeed,\n        string memory _description\n    ) public {\n        underlyingPriceFeed = AggregatorV3Interface(_underlyingPriceFeed);\n        ethUsdPriceFeed = AggregatorV3Interface(_ethUsdPriceFeed);\n        description = _description;\n    }\n\n    function getContractDescription() public view returns (string memory) {\n        // print a description of the derivative\n        return description;\n    }\n\n    function getStatus() public view returns (string memory) {\n        if (\n            totalBalanceShortSide >\n            ((100 + eqTolerance) / 100) * totalBalanceLongSide\n        ) {\n            return \"Short side is underexposed\";\n        } else if (\n            totalBalanceLongSide >\n            ((100 + eqTolerance) / 100) * totalBalanceShortSide\n        ) return \"Long side is underexposed\";\n        else {\n            return \"Contract is hedged\";\n        }\n    }\n\n    function enterLongSide() public payable {\n        requireMinimum(msg.value);\n        investorsLongSide.push(msg.sender);\n        bookLongSide[msg.sender] += msg.value;\n        totalBalanceLongSide += msg.value;\n    }\n\n    function enterShortSide() public payable {\n        requireMinimum(msg.value);\n        investorsLongSide.push(msg.sender);\n        bookLongSide[msg.sender] += msg.value;\n        totalBalanceShortSide += msg.value;\n    }\n\n    function requireMinimum(uint256 amountEth) internal {\n        (, int256 price, , , ) = ethUsdPriceFeed.latestRoundData();\n        uint256 amountUsd = amountEth / (uint256(price) * 10**10);\n        require(amountUsd > minUsd);\n    }\n\n    function abs(int256 x) private pure returns (int256) {\n        return x >= 0 ? x : -x;\n    }\n\n    function settlementFunction() public {}\n\n    function callSettlement() public {}\n\n    function withdrawFunds() public {}\n\n    function terminateContract() public {}\n\n    function computeFees() public {}\n\n    function transferFees() public {}\n\n    function computeAmoutNeededForHedge() public view {}\n}\n",
  "sourcePath": "contracts/PooledDerivative.sol",
  "type": "contract"
}